{
	"data": {
		"bytecode": {
			"linkReferences": {},
			"object": "60c06040523480156200001157600080fd5b5060405162000c6938038062000c6983398181016040528101906200003791906200018e565b336000806101000a81548173ffffffffffffffffffffffffffffffffffffffff021916908373ffffffffffffffffffffffffffffffffffffffff160217905550836001819055504260028190555062093a80426200009691906200022f565b600381905550826004819055508173ffffffffffffffffffffffffffffffffffffffff1660808173ffffffffffffffffffffffffffffffffffffffff16815250508060a08181525050505050506200028c565b600080fd5b6000819050919050565b6200010381620000ee565b81146200010f57600080fd5b50565b6000815190506200012381620000f8565b92915050565b600073ffffffffffffffffffffffffffffffffffffffff82169050919050565b6000620001568262000129565b9050919050565b620001688162000149565b81146200017457600080fd5b50565b60008151905062000188816200015d565b92915050565b60008060008060808587031215620001ab57620001aa620000e9565b5b6000620001bb8782880162000112565b9450506020620001ce8782880162000112565b9350506040620001e18782880162000177565b9250506060620001f48782880162000112565b91505092959194509250565b7f4e487b7100000000000000000000000000000000000000000000000000000000600052601160045260246000fd5b60006200023c82620000ee565b91506200024983620000ee565b9250827fffffffffffffffffffffffffffffffffffffffffffffffffffffffffffffffff0382111562000281576200028062000200565b5b828201905092915050565b60805160a0516109a9620002c06000396000818161042a015261054001526000818161021301526103cc01526109a96000f3fe6080604052600436106100865760003560e01c8063c6bc518211610059578063c6bc518214610116578063c744656514610141578063d6fbf2021461016c578063df16744c14610197578063dfbf53ae146101c257610086565b806308551a531461008b57806347ccca02146100b65780638622a689146100e1578063a6f2ae3a1461010c575b600080fd5b34801561009757600080fd5b506100a06101ed565b6040516100ad91906105db565b60405180910390f35b3480156100c257600080fd5b506100cb610211565b6040516100d89190610655565b60405180910390f35b3480156100ed57600080fd5b506100f6610235565b6040516101039190610689565b60405180910390f35b61011461023b565b005b34801561012257600080fd5b5061012b61053e565b6040516101389190610689565b60405180910390f35b34801561014d57600080fd5b50610156610562565b6040516101639190610689565b60405180910390f35b34801561017857600080fd5b50610181610568565b60405161018e9190610689565b60405180910390f35b3480156101a357600080fd5b506101ac61056e565b6040516101b99190610689565b60405180910390f35b3480156101ce57600080fd5b506101d7610574565b6040516101e491906106c5565b60405180910390f35b60008054906101000a900473ffffffffffffffffffffffffffffffffffffffff1681565b7f000000000000000000000000000000000000000000000000000000000000000081565b60035481565b600354421061027f576040517f08c379a00000000000000000000000000000000000000000000000000000000081526004016102769061073d565b60405180910390fd5b600073ffffffffffffffffffffffffffffffffffffffff16600560009054906101000a900473ffffffffffffffffffffffffffffffffffffffff1673ffffffffffffffffffffffffffffffffffffffff1614610310576040517f08c379a0000000000000000000000000000000000000000000000000000000008152600401610307906107a9565b60405180910390fd5b60006002544261032091906107f8565b9050600081600454610332919061082c565b905060008160015461034491906107f8565b905080341015610389576040517f08c379a0000000000000000000000000000000000000000000000000000000008152600401610380906108d2565b60405180910390fd5b33600560006101000a81548173ffffffffffffffffffffffffffffffffffffffff021916908373ffffffffffffffffffffffffffffffffffffffff1602179055507f000000000000000000000000000000000000000000000000000000000000000073ffffffffffffffffffffffffffffffffffffffff166323b872dd60008054906101000a900473ffffffffffffffffffffffffffffffffffffffff16337f00000000000000000000000000000000000000000000000000000000000000006040518463ffffffff1660e01b815260040161046793929190610913565b600060405180830381600087803b15801561048157600080fd5b505af1158015610495573d6000803e3d6000fd5b5050505060008054906101000a900473ffffffffffffffffffffffffffffffffffffffff1673ffffffffffffffffffffffffffffffffffffffff166108fc349081150290604051600060405180830381858888f193505050501580156104ff573d6000803e3d6000fd5b507fe3d4187f6ca4248660cc0ac8b8056515bac4a8132be2eca31d6d0cc170722a7e333460405161053192919061094a565b60405180910390a1505050565b7f000000000000000000000000000000000000000000000000000000000000000081565b60025481565b60015481565b60045481565b600560009054906101000a900473ffffffffffffffffffffffffffffffffffffffff1681565b600073ffffffffffffffffffffffffffffffffffffffff82169050919050565b60006105c58261059a565b9050919050565b6105d5816105ba565b82525050565b60006020820190506105f060008301846105cc565b92915050565b6000819050919050565b600061061b6106166106118461059a565b6105f6565b61059a565b9050919050565b600061062d82610600565b9050919050565b600061063f82610622565b9050919050565b61064f81610634565b82525050565b600060208201905061066a6000830184610646565b92915050565b6000819050919050565b61068381610670565b82525050565b600060208201905061069e600083018461067a565b92915050565b60006106af8261059a565b9050919050565b6106bf816106a4565b82525050565b60006020820190506106da60008301846106b6565b92915050565b600082825260208201905092915050565b7f61756374696f6e20657870697265640000000000000000000000000000000000600082015250565b6000610727600f836106e0565b9150610732826106f1565b602082019050919050565b600060208201905081810360008301526107568161071a565b9050919050565b7f61756374696f6e2066696e697368656400000000000000000000000000000000600082015250565b60006107936010836106e0565b915061079e8261075d565b602082019050919050565b600060208201905081810360008301526107c281610786565b9050919050565b7f4e487b7100000000000000000000000000000000000000000000000000000000600052601160045260246000fd5b600061080382610670565b915061080e83610670565b925082821015610821576108206107c9565b5b828203905092915050565b600061083782610670565b915061084283610670565b9250817fffffffffffffffffffffffffffffffffffffffffffffffffffffffffffffffff048311821515161561087b5761087a6107c9565b5b828202905092915050565b7f455448203c207072696365000000000000000000000000000000000000000000600082015250565b60006108bc600b836106e0565b91506108c782610886565b602082019050919050565b600060208201905081810360008301526108eb816108af565b9050919050565b60006108fd82610622565b9050919050565b61090d816108f2565b82525050565b60006060820190506109286000830186610904565b61093560208301856106b6565b610942604083018461067a565b949350505050565b600060408201905061095f60008301856106b6565b61096c602083018461067a565b939250505056fea2646970667358221220f0302fdc5109f9d9984bcc4b8757ddeecd4629c015b08a510c42495ba7e8804864736f6c634300080b0033",
			"opcodes": "PUSH1 0xC0 PUSH1 0x40 MSTORE CALLVALUE DUP1 ISZERO PUSH3 0x11 JUMPI PUSH1 0x0 DUP1 REVERT JUMPDEST POP PUSH1 0x40 MLOAD PUSH3 0xC69 CODESIZE SUB DUP1 PUSH3 0xC69 DUP4 CODECOPY DUP2 DUP2 ADD PUSH1 0x40 MSTORE DUP2 ADD SWAP1 PUSH3 0x37 SWAP2 SWAP1 PUSH3 0x18E JUMP JUMPDEST CALLER PUSH1 0x0 DUP1 PUSH2 0x100 EXP DUP2 SLOAD DUP2 PUSH20 0xFFFFFFFFFFFFFFFFFFFFFFFFFFFFFFFFFFFFFFFF MUL NOT AND SWAP1 DUP4 PUSH20 0xFFFFFFFFFFFFFFFFFFFFFFFFFFFFFFFFFFFFFFFF AND MUL OR SWAP1 SSTORE POP DUP4 PUSH1 0x1 DUP2 SWAP1 SSTORE POP TIMESTAMP PUSH1 0x2 DUP2 SWAP1 SSTORE POP PUSH3 0x93A80 TIMESTAMP PUSH3 0x96 SWAP2 SWAP1 PUSH3 0x22F JUMP JUMPDEST PUSH1 0x3 DUP2 SWAP1 SSTORE POP DUP3 PUSH1 0x4 DUP2 SWAP1 SSTORE POP DUP2 PUSH20 0xFFFFFFFFFFFFFFFFFFFFFFFFFFFFFFFFFFFFFFFF AND PUSH1 0x80 DUP2 PUSH20 0xFFFFFFFFFFFFFFFFFFFFFFFFFFFFFFFFFFFFFFFF AND DUP2 MSTORE POP POP DUP1 PUSH1 0xA0 DUP2 DUP2 MSTORE POP POP POP POP POP POP PUSH3 0x28C JUMP JUMPDEST PUSH1 0x0 DUP1 REVERT JUMPDEST PUSH1 0x0 DUP2 SWAP1 POP SWAP2 SWAP1 POP JUMP JUMPDEST PUSH3 0x103 DUP2 PUSH3 0xEE JUMP JUMPDEST DUP2 EQ PUSH3 0x10F JUMPI PUSH1 0x0 DUP1 REVERT JUMPDEST POP JUMP JUMPDEST PUSH1 0x0 DUP2 MLOAD SWAP1 POP PUSH3 0x123 DUP2 PUSH3 0xF8 JUMP JUMPDEST SWAP3 SWAP2 POP POP JUMP JUMPDEST PUSH1 0x0 PUSH20 0xFFFFFFFFFFFFFFFFFFFFFFFFFFFFFFFFFFFFFFFF DUP3 AND SWAP1 POP SWAP2 SWAP1 POP JUMP JUMPDEST PUSH1 0x0 PUSH3 0x156 DUP3 PUSH3 0x129 JUMP JUMPDEST SWAP1 POP SWAP2 SWAP1 POP JUMP JUMPDEST PUSH3 0x168 DUP2 PUSH3 0x149 JUMP JUMPDEST DUP2 EQ PUSH3 0x174 JUMPI PUSH1 0x0 DUP1 REVERT JUMPDEST POP JUMP JUMPDEST PUSH1 0x0 DUP2 MLOAD SWAP1 POP PUSH3 0x188 DUP2 PUSH3 0x15D JUMP JUMPDEST SWAP3 SWAP2 POP POP JUMP JUMPDEST PUSH1 0x0 DUP1 PUSH1 0x0 DUP1 PUSH1 0x80 DUP6 DUP8 SUB SLT ISZERO PUSH3 0x1AB JUMPI PUSH3 0x1AA PUSH3 0xE9 JUMP JUMPDEST JUMPDEST PUSH1 0x0 PUSH3 0x1BB DUP8 DUP3 DUP9 ADD PUSH3 0x112 JUMP JUMPDEST SWAP5 POP POP PUSH1 0x20 PUSH3 0x1CE DUP8 DUP3 DUP9 ADD PUSH3 0x112 JUMP JUMPDEST SWAP4 POP POP PUSH1 0x40 PUSH3 0x1E1 DUP8 DUP3 DUP9 ADD PUSH3 0x177 JUMP JUMPDEST SWAP3 POP POP PUSH1 0x60 PUSH3 0x1F4 DUP8 DUP3 DUP9 ADD PUSH3 0x112 JUMP JUMPDEST SWAP2 POP POP SWAP3 SWAP6 SWAP2 SWAP5 POP SWAP3 POP JUMP JUMPDEST PUSH32 0x4E487B7100000000000000000000000000000000000000000000000000000000 PUSH1 0x0 MSTORE PUSH1 0x11 PUSH1 0x4 MSTORE PUSH1 0x24 PUSH1 0x0 REVERT JUMPDEST PUSH1 0x0 PUSH3 0x23C DUP3 PUSH3 0xEE JUMP JUMPDEST SWAP2 POP PUSH3 0x249 DUP4 PUSH3 0xEE JUMP JUMPDEST SWAP3 POP DUP3 PUSH32 0xFFFFFFFFFFFFFFFFFFFFFFFFFFFFFFFFFFFFFFFFFFFFFFFFFFFFFFFFFFFFFFFF SUB DUP3 GT ISZERO PUSH3 0x281 JUMPI PUSH3 0x280 PUSH3 0x200 JUMP JUMPDEST JUMPDEST DUP3 DUP3 ADD SWAP1 POP SWAP3 SWAP2 POP POP JUMP JUMPDEST PUSH1 0x80 MLOAD PUSH1 0xA0 MLOAD PUSH2 0x9A9 PUSH3 0x2C0 PUSH1 0x0 CODECOPY PUSH1 0x0 DUP2 DUP2 PUSH2 0x42A ADD MSTORE PUSH2 0x540 ADD MSTORE PUSH1 0x0 DUP2 DUP2 PUSH2 0x213 ADD MSTORE PUSH2 0x3CC ADD MSTORE PUSH2 0x9A9 PUSH1 0x0 RETURN INVALID PUSH1 0x80 PUSH1 0x40 MSTORE PUSH1 0x4 CALLDATASIZE LT PUSH2 0x86 JUMPI PUSH1 0x0 CALLDATALOAD PUSH1 0xE0 SHR DUP1 PUSH4 0xC6BC5182 GT PUSH2 0x59 JUMPI DUP1 PUSH4 0xC6BC5182 EQ PUSH2 0x116 JUMPI DUP1 PUSH4 0xC7446565 EQ PUSH2 0x141 JUMPI DUP1 PUSH4 0xD6FBF202 EQ PUSH2 0x16C JUMPI DUP1 PUSH4 0xDF16744C EQ PUSH2 0x197 JUMPI DUP1 PUSH4 0xDFBF53AE EQ PUSH2 0x1C2 JUMPI PUSH2 0x86 JUMP JUMPDEST DUP1 PUSH4 0x8551A53 EQ PUSH2 0x8B JUMPI DUP1 PUSH4 0x47CCCA02 EQ PUSH2 0xB6 JUMPI DUP1 PUSH4 0x8622A689 EQ PUSH2 0xE1 JUMPI DUP1 PUSH4 0xA6F2AE3A EQ PUSH2 0x10C JUMPI JUMPDEST PUSH1 0x0 DUP1 REVERT JUMPDEST CALLVALUE DUP1 ISZERO PUSH2 0x97 JUMPI PUSH1 0x0 DUP1 REVERT JUMPDEST POP PUSH2 0xA0 PUSH2 0x1ED JUMP JUMPDEST PUSH1 0x40 MLOAD PUSH2 0xAD SWAP2 SWAP1 PUSH2 0x5DB JUMP JUMPDEST PUSH1 0x40 MLOAD DUP1 SWAP2 SUB SWAP1 RETURN JUMPDEST CALLVALUE DUP1 ISZERO PUSH2 0xC2 JUMPI PUSH1 0x0 DUP1 REVERT JUMPDEST POP PUSH2 0xCB PUSH2 0x211 JUMP JUMPDEST PUSH1 0x40 MLOAD PUSH2 0xD8 SWAP2 SWAP1 PUSH2 0x655 JUMP JUMPDEST PUSH1 0x40 MLOAD DUP1 SWAP2 SUB SWAP1 RETURN JUMPDEST CALLVALUE DUP1 ISZERO PUSH2 0xED JUMPI PUSH1 0x0 DUP1 REVERT JUMPDEST POP PUSH2 0xF6 PUSH2 0x235 JUMP JUMPDEST PUSH1 0x40 MLOAD PUSH2 0x103 SWAP2 SWAP1 PUSH2 0x689 JUMP JUMPDEST PUSH1 0x40 MLOAD DUP1 SWAP2 SUB SWAP1 RETURN JUMPDEST PUSH2 0x114 PUSH2 0x23B JUMP JUMPDEST STOP JUMPDEST CALLVALUE DUP1 ISZERO PUSH2 0x122 JUMPI PUSH1 0x0 DUP1 REVERT JUMPDEST POP PUSH2 0x12B PUSH2 0x53E JUMP JUMPDEST PUSH1 0x40 MLOAD PUSH2 0x138 SWAP2 SWAP1 PUSH2 0x689 JUMP JUMPDEST PUSH1 0x40 MLOAD DUP1 SWAP2 SUB SWAP1 RETURN JUMPDEST CALLVALUE DUP1 ISZERO PUSH2 0x14D JUMPI PUSH1 0x0 DUP1 REVERT JUMPDEST POP PUSH2 0x156 PUSH2 0x562 JUMP JUMPDEST PUSH1 0x40 MLOAD PUSH2 0x163 SWAP2 SWAP1 PUSH2 0x689 JUMP JUMPDEST PUSH1 0x40 MLOAD DUP1 SWAP2 SUB SWAP1 RETURN JUMPDEST CALLVALUE DUP1 ISZERO PUSH2 0x178 JUMPI PUSH1 0x0 DUP1 REVERT JUMPDEST POP PUSH2 0x181 PUSH2 0x568 JUMP JUMPDEST PUSH1 0x40 MLOAD PUSH2 0x18E SWAP2 SWAP1 PUSH2 0x689 JUMP JUMPDEST PUSH1 0x40 MLOAD DUP1 SWAP2 SUB SWAP1 RETURN JUMPDEST CALLVALUE DUP1 ISZERO PUSH2 0x1A3 JUMPI PUSH1 0x0 DUP1 REVERT JUMPDEST POP PUSH2 0x1AC PUSH2 0x56E JUMP JUMPDEST PUSH1 0x40 MLOAD PUSH2 0x1B9 SWAP2 SWAP1 PUSH2 0x689 JUMP JUMPDEST PUSH1 0x40 MLOAD DUP1 SWAP2 SUB SWAP1 RETURN JUMPDEST CALLVALUE DUP1 ISZERO PUSH2 0x1CE JUMPI PUSH1 0x0 DUP1 REVERT JUMPDEST POP PUSH2 0x1D7 PUSH2 0x574 JUMP JUMPDEST PUSH1 0x40 MLOAD PUSH2 0x1E4 SWAP2 SWAP1 PUSH2 0x6C5 JUMP JUMPDEST PUSH1 0x40 MLOAD DUP1 SWAP2 SUB SWAP1 RETURN JUMPDEST PUSH1 0x0 DUP1 SLOAD SWAP1 PUSH2 0x100 EXP SWAP1 DIV PUSH20 0xFFFFFFFFFFFFFFFFFFFFFFFFFFFFFFFFFFFFFFFF AND DUP2 JUMP JUMPDEST PUSH32 0x0 DUP2 JUMP JUMPDEST PUSH1 0x3 SLOAD DUP2 JUMP JUMPDEST PUSH1 0x3 SLOAD TIMESTAMP LT PUSH2 0x27F JUMPI PUSH1 0x40 MLOAD PUSH32 0x8C379A000000000000000000000000000000000000000000000000000000000 DUP2 MSTORE PUSH1 0x4 ADD PUSH2 0x276 SWAP1 PUSH2 0x73D JUMP JUMPDEST PUSH1 0x40 MLOAD DUP1 SWAP2 SUB SWAP1 REVERT JUMPDEST PUSH1 0x0 PUSH20 0xFFFFFFFFFFFFFFFFFFFFFFFFFFFFFFFFFFFFFFFF AND PUSH1 0x5 PUSH1 0x0 SWAP1 SLOAD SWAP1 PUSH2 0x100 EXP SWAP1 DIV PUSH20 0xFFFFFFFFFFFFFFFFFFFFFFFFFFFFFFFFFFFFFFFF AND PUSH20 0xFFFFFFFFFFFFFFFFFFFFFFFFFFFFFFFFFFFFFFFF AND EQ PUSH2 0x310 JUMPI PUSH1 0x40 MLOAD PUSH32 0x8C379A000000000000000000000000000000000000000000000000000000000 DUP2 MSTORE PUSH1 0x4 ADD PUSH2 0x307 SWAP1 PUSH2 0x7A9 JUMP JUMPDEST PUSH1 0x40 MLOAD DUP1 SWAP2 SUB SWAP1 REVERT JUMPDEST PUSH1 0x0 PUSH1 0x2 SLOAD TIMESTAMP PUSH2 0x320 SWAP2 SWAP1 PUSH2 0x7F8 JUMP JUMPDEST SWAP1 POP PUSH1 0x0 DUP2 PUSH1 0x4 SLOAD PUSH2 0x332 SWAP2 SWAP1 PUSH2 0x82C JUMP JUMPDEST SWAP1 POP PUSH1 0x0 DUP2 PUSH1 0x1 SLOAD PUSH2 0x344 SWAP2 SWAP1 PUSH2 0x7F8 JUMP JUMPDEST SWAP1 POP DUP1 CALLVALUE LT ISZERO PUSH2 0x389 JUMPI PUSH1 0x40 MLOAD PUSH32 0x8C379A000000000000000000000000000000000000000000000000000000000 DUP2 MSTORE PUSH1 0x4 ADD PUSH2 0x380 SWAP1 PUSH2 0x8D2 JUMP JUMPDEST PUSH1 0x40 MLOAD DUP1 SWAP2 SUB SWAP1 REVERT JUMPDEST CALLER PUSH1 0x5 PUSH1 0x0 PUSH2 0x100 EXP DUP2 SLOAD DUP2 PUSH20 0xFFFFFFFFFFFFFFFFFFFFFFFFFFFFFFFFFFFFFFFF MUL NOT AND SWAP1 DUP4 PUSH20 0xFFFFFFFFFFFFFFFFFFFFFFFFFFFFFFFFFFFFFFFF AND MUL OR SWAP1 SSTORE POP PUSH32 0x0 PUSH20 0xFFFFFFFFFFFFFFFFFFFFFFFFFFFFFFFFFFFFFFFF AND PUSH4 0x23B872DD PUSH1 0x0 DUP1 SLOAD SWAP1 PUSH2 0x100 EXP SWAP1 DIV PUSH20 0xFFFFFFFFFFFFFFFFFFFFFFFFFFFFFFFFFFFFFFFF AND CALLER PUSH32 0x0 PUSH1 0x40 MLOAD DUP5 PUSH4 0xFFFFFFFF AND PUSH1 0xE0 SHL DUP2 MSTORE PUSH1 0x4 ADD PUSH2 0x467 SWAP4 SWAP3 SWAP2 SWAP1 PUSH2 0x913 JUMP JUMPDEST PUSH1 0x0 PUSH1 0x40 MLOAD DUP1 DUP4 SUB DUP2 PUSH1 0x0 DUP8 DUP1 EXTCODESIZE ISZERO DUP1 ISZERO PUSH2 0x481 JUMPI PUSH1 0x0 DUP1 REVERT JUMPDEST POP GAS CALL ISZERO DUP1 ISZERO PUSH2 0x495 JUMPI RETURNDATASIZE PUSH1 0x0 DUP1 RETURNDATACOPY RETURNDATASIZE PUSH1 0x0 REVERT JUMPDEST POP POP POP POP PUSH1 0x0 DUP1 SLOAD SWAP1 PUSH2 0x100 EXP SWAP1 DIV PUSH20 0xFFFFFFFFFFFFFFFFFFFFFFFFFFFFFFFFFFFFFFFF AND PUSH20 0xFFFFFFFFFFFFFFFFFFFFFFFFFFFFFFFFFFFFFFFF AND PUSH2 0x8FC CALLVALUE SWAP1 DUP2 ISZERO MUL SWAP1 PUSH1 0x40 MLOAD PUSH1 0x0 PUSH1 0x40 MLOAD DUP1 DUP4 SUB DUP2 DUP6 DUP9 DUP9 CALL SWAP4 POP POP POP POP ISZERO DUP1 ISZERO PUSH2 0x4FF JUMPI RETURNDATASIZE PUSH1 0x0 DUP1 RETURNDATACOPY RETURNDATASIZE PUSH1 0x0 REVERT JUMPDEST POP PUSH32 0xE3D4187F6CA4248660CC0AC8B8056515BAC4A8132BE2ECA31D6D0CC170722A7E CALLER CALLVALUE PUSH1 0x40 MLOAD PUSH2 0x531 SWAP3 SWAP2 SWAP1 PUSH2 0x94A JUMP JUMPDEST PUSH1 0x40 MLOAD DUP1 SWAP2 SUB SWAP1 LOG1 POP POP POP JUMP JUMPDEST PUSH32 0x0 DUP2 JUMP JUMPDEST PUSH1 0x2 SLOAD DUP2 JUMP JUMPDEST PUSH1 0x1 SLOAD DUP2 JUMP JUMPDEST PUSH1 0x4 SLOAD DUP2 JUMP JUMPDEST PUSH1 0x5 PUSH1 0x0 SWAP1 SLOAD SWAP1 PUSH2 0x100 EXP SWAP1 DIV PUSH20 0xFFFFFFFFFFFFFFFFFFFFFFFFFFFFFFFFFFFFFFFF AND DUP2 JUMP JUMPDEST PUSH1 0x0 PUSH20 0xFFFFFFFFFFFFFFFFFFFFFFFFFFFFFFFFFFFFFFFF DUP3 AND SWAP1 POP SWAP2 SWAP1 POP JUMP JUMPDEST PUSH1 0x0 PUSH2 0x5C5 DUP3 PUSH2 0x59A JUMP JUMPDEST SWAP1 POP SWAP2 SWAP1 POP JUMP JUMPDEST PUSH2 0x5D5 DUP2 PUSH2 0x5BA JUMP JUMPDEST DUP3 MSTORE POP POP JUMP JUMPDEST PUSH1 0x0 PUSH1 0x20 DUP3 ADD SWAP1 POP PUSH2 0x5F0 PUSH1 0x0 DUP4 ADD DUP5 PUSH2 0x5CC JUMP JUMPDEST SWAP3 SWAP2 POP POP JUMP JUMPDEST PUSH1 0x0 DUP2 SWAP1 POP SWAP2 SWAP1 POP JUMP JUMPDEST PUSH1 0x0 PUSH2 0x61B PUSH2 0x616 PUSH2 0x611 DUP5 PUSH2 0x59A JUMP JUMPDEST PUSH2 0x5F6 JUMP JUMPDEST PUSH2 0x59A JUMP JUMPDEST SWAP1 POP SWAP2 SWAP1 POP JUMP JUMPDEST PUSH1 0x0 PUSH2 0x62D DUP3 PUSH2 0x600 JUMP JUMPDEST SWAP1 POP SWAP2 SWAP1 POP JUMP JUMPDEST PUSH1 0x0 PUSH2 0x63F DUP3 PUSH2 0x622 JUMP JUMPDEST SWAP1 POP SWAP2 SWAP1 POP JUMP JUMPDEST PUSH2 0x64F DUP2 PUSH2 0x634 JUMP JUMPDEST DUP3 MSTORE POP POP JUMP JUMPDEST PUSH1 0x0 PUSH1 0x20 DUP3 ADD SWAP1 POP PUSH2 0x66A PUSH1 0x0 DUP4 ADD DUP5 PUSH2 0x646 JUMP JUMPDEST SWAP3 SWAP2 POP POP JUMP JUMPDEST PUSH1 0x0 DUP2 SWAP1 POP SWAP2 SWAP1 POP JUMP JUMPDEST PUSH2 0x683 DUP2 PUSH2 0x670 JUMP JUMPDEST DUP3 MSTORE POP POP JUMP JUMPDEST PUSH1 0x0 PUSH1 0x20 DUP3 ADD SWAP1 POP PUSH2 0x69E PUSH1 0x0 DUP4 ADD DUP5 PUSH2 0x67A JUMP JUMPDEST SWAP3 SWAP2 POP POP JUMP JUMPDEST PUSH1 0x0 PUSH2 0x6AF DUP3 PUSH2 0x59A JUMP JUMPDEST SWAP1 POP SWAP2 SWAP1 POP JUMP JUMPDEST PUSH2 0x6BF DUP2 PUSH2 0x6A4 JUMP JUMPDEST DUP3 MSTORE POP POP JUMP JUMPDEST PUSH1 0x0 PUSH1 0x20 DUP3 ADD SWAP1 POP PUSH2 0x6DA PUSH1 0x0 DUP4 ADD DUP5 PUSH2 0x6B6 JUMP JUMPDEST SWAP3 SWAP2 POP POP JUMP JUMPDEST PUSH1 0x0 DUP3 DUP3 MSTORE PUSH1 0x20 DUP3 ADD SWAP1 POP SWAP3 SWAP2 POP POP JUMP JUMPDEST PUSH32 0x61756374696F6E20657870697265640000000000000000000000000000000000 PUSH1 0x0 DUP3 ADD MSTORE POP JUMP JUMPDEST PUSH1 0x0 PUSH2 0x727 PUSH1 0xF DUP4 PUSH2 0x6E0 JUMP JUMPDEST SWAP2 POP PUSH2 0x732 DUP3 PUSH2 0x6F1 JUMP JUMPDEST PUSH1 0x20 DUP3 ADD SWAP1 POP SWAP2 SWAP1 POP JUMP JUMPDEST PUSH1 0x0 PUSH1 0x20 DUP3 ADD SWAP1 POP DUP2 DUP2 SUB PUSH1 0x0 DUP4 ADD MSTORE PUSH2 0x756 DUP2 PUSH2 0x71A JUMP JUMPDEST SWAP1 POP SWAP2 SWAP1 POP JUMP JUMPDEST PUSH32 0x61756374696F6E2066696E697368656400000000000000000000000000000000 PUSH1 0x0 DUP3 ADD MSTORE POP JUMP JUMPDEST PUSH1 0x0 PUSH2 0x793 PUSH1 0x10 DUP4 PUSH2 0x6E0 JUMP JUMPDEST SWAP2 POP PUSH2 0x79E DUP3 PUSH2 0x75D JUMP JUMPDEST PUSH1 0x20 DUP3 ADD SWAP1 POP SWAP2 SWAP1 POP JUMP JUMPDEST PUSH1 0x0 PUSH1 0x20 DUP3 ADD SWAP1 POP DUP2 DUP2 SUB PUSH1 0x0 DUP4 ADD MSTORE PUSH2 0x7C2 DUP2 PUSH2 0x786 JUMP JUMPDEST SWAP1 POP SWAP2 SWAP1 POP JUMP JUMPDEST PUSH32 0x4E487B7100000000000000000000000000000000000000000000000000000000 PUSH1 0x0 MSTORE PUSH1 0x11 PUSH1 0x4 MSTORE PUSH1 0x24 PUSH1 0x0 REVERT JUMPDEST PUSH1 0x0 PUSH2 0x803 DUP3 PUSH2 0x670 JUMP JUMPDEST SWAP2 POP PUSH2 0x80E DUP4 PUSH2 0x670 JUMP JUMPDEST SWAP3 POP DUP3 DUP3 LT ISZERO PUSH2 0x821 JUMPI PUSH2 0x820 PUSH2 0x7C9 JUMP JUMPDEST JUMPDEST DUP3 DUP3 SUB SWAP1 POP SWAP3 SWAP2 POP POP JUMP JUMPDEST PUSH1 0x0 PUSH2 0x837 DUP3 PUSH2 0x670 JUMP JUMPDEST SWAP2 POP PUSH2 0x842 DUP4 PUSH2 0x670 JUMP JUMPDEST SWAP3 POP DUP2 PUSH32 0xFFFFFFFFFFFFFFFFFFFFFFFFFFFFFFFFFFFFFFFFFFFFFFFFFFFFFFFFFFFFFFFF DIV DUP4 GT DUP3 ISZERO ISZERO AND ISZERO PUSH2 0x87B JUMPI PUSH2 0x87A PUSH2 0x7C9 JUMP JUMPDEST JUMPDEST DUP3 DUP3 MUL SWAP1 POP SWAP3 SWAP2 POP POP JUMP JUMPDEST PUSH32 0x455448203C207072696365000000000000000000000000000000000000000000 PUSH1 0x0 DUP3 ADD MSTORE POP JUMP JUMPDEST PUSH1 0x0 PUSH2 0x8BC PUSH1 0xB DUP4 PUSH2 0x6E0 JUMP JUMPDEST SWAP2 POP PUSH2 0x8C7 DUP3 PUSH2 0x886 JUMP JUMPDEST PUSH1 0x20 DUP3 ADD SWAP1 POP SWAP2 SWAP1 POP JUMP JUMPDEST PUSH1 0x0 PUSH1 0x20 DUP3 ADD SWAP1 POP DUP2 DUP2 SUB PUSH1 0x0 DUP4 ADD MSTORE PUSH2 0x8EB DUP2 PUSH2 0x8AF JUMP JUMPDEST SWAP1 POP SWAP2 SWAP1 POP JUMP JUMPDEST PUSH1 0x0 PUSH2 0x8FD DUP3 PUSH2 0x622 JUMP JUMPDEST SWAP1 POP SWAP2 SWAP1 POP JUMP JUMPDEST PUSH2 0x90D DUP2 PUSH2 0x8F2 JUMP JUMPDEST DUP3 MSTORE POP POP JUMP JUMPDEST PUSH1 0x0 PUSH1 0x60 DUP3 ADD SWAP1 POP PUSH2 0x928 PUSH1 0x0 DUP4 ADD DUP7 PUSH2 0x904 JUMP JUMPDEST PUSH2 0x935 PUSH1 0x20 DUP4 ADD DUP6 PUSH2 0x6B6 JUMP JUMPDEST PUSH2 0x942 PUSH1 0x40 DUP4 ADD DUP5 PUSH2 0x67A JUMP JUMPDEST SWAP5 SWAP4 POP POP POP POP JUMP JUMPDEST PUSH1 0x0 PUSH1 0x40 DUP3 ADD SWAP1 POP PUSH2 0x95F PUSH1 0x0 DUP4 ADD DUP6 PUSH2 0x6B6 JUMP JUMPDEST PUSH2 0x96C PUSH1 0x20 DUP4 ADD DUP5 PUSH2 0x67A JUMP JUMPDEST SWAP4 SWAP3 POP POP POP JUMP INVALID LOG2 PUSH5 0x6970667358 0x22 SLT KECCAK256 CREATE ADDRESS 0x2F 0xDC MLOAD MULMOD 0xF9 0xD9 SWAP9 0x4B 0xCC 0x4B DUP8 JUMPI 0xDD 0xEE 0xCD CHAINID 0x29 0xC0 ISZERO 0xB0 DUP11 MLOAD 0xC TIMESTAMP 0x49 JUMPDEST 0xA7 0xE8 DUP1 BASEFEE PUSH5 0x736F6C6343 STOP ADDMOD SIGNEXTEND STOP CALLER "
		},
		"gasEstimates": {
			"creation": {
				"codeDepositCost": "494600",
				"executionCost": "infinite",
				"totalCost": "infinite"
			},
			"external": {
				"buy()": "infinite",
				"expiresAt()": "2474",
				"nft()": "infinite",
				"nftId()": "infinite",
				"priceDeductionRate()": "2495",
				"seller()": "2512",
				"startAt()": "2451",
				"startingPrice()": "2473",
				"winner()": "2602"
			}
		},
		"methodIdentifiers": {
			"buy()": "a6f2ae3a",
			"expiresAt()": "8622a689",
			"nft()": "47ccca02",
			"nftId()": "c6bc5182",
			"priceDeductionRate()": "df16744c",
			"seller()": "08551a53",
			"startAt()": "c7446565",
			"startingPrice()": "d6fbf202",
			"winner()": "dfbf53ae"
		}
	},
	"abi": [
		{
			"inputs": [
				{
					"internalType": "uint256",
					"name": "_startingPrice",
					"type": "uint256"
				},
				{
					"internalType": "uint256",
					"name": "_priceDeductionRate",
					"type": "uint256"
				},
				{
					"internalType": "address",
					"name": "_nft",
					"type": "address"
				},
				{
					"internalType": "uint256",
					"name": "_nftId",
					"type": "uint256"
				}
			],
			"stateMutability": "nonpayable",
			"type": "constructor"
		},
		{
			"anonymous": false,
			"inputs": [
				{
					"indexed": false,
					"internalType": "address",
					"name": "winner",
					"type": "address"
				},
				{
					"indexed": false,
					"internalType": "uint256",
					"name": "amount",
					"type": "uint256"
				}
			],
			"name": "Buy",
			"type": "event"
		},
		{
			"inputs": [],
			"name": "buy",
			"outputs": [],
			"stateMutability": "payable",
			"type": "function"
		},
		{
			"inputs": [],
			"name": "expiresAt",
			"outputs": [
				{
					"internalType": "uint256",
					"name": "",
					"type": "uint256"
				}
			],
			"stateMutability": "view",
			"type": "function"
		},
		{
			"inputs": [],
			"name": "nft",
			"outputs": [
				{
					"internalType": "contract IERC721",
					"name": "",
					"type": "address"
				}
			],
			"stateMutability": "view",
			"type": "function"
		},
		{
			"inputs": [],
			"name": "nftId",
			"outputs": [
				{
					"internalType": "uint256",
					"name": "",
					"type": "uint256"
				}
			],
			"stateMutability": "view",
			"type": "function"
		},
		{
			"inputs": [],
			"name": "priceDeductionRate",
			"outputs": [
				{
					"internalType": "uint256",
					"name": "",
					"type": "uint256"
				}
			],
			"stateMutability": "view",
			"type": "function"
		},
		{
			"inputs": [],
			"name": "seller",
			"outputs": [
				{
					"internalType": "address payable",
					"name": "",
					"type": "address"
				}
			],
			"stateMutability": "view",
			"type": "function"
		},
		{
			"inputs": [],
			"name": "startAt",
			"outputs": [
				{
					"internalType": "uint256",
					"name": "",
					"type": "uint256"
				}
			],
			"stateMutability": "view",
			"type": "function"
		},
		{
			"inputs": [],
			"name": "startingPrice",
			"outputs": [
				{
					"internalType": "uint256",
					"name": "",
					"type": "uint256"
				}
			],
			"stateMutability": "view",
			"type": "function"
		},
		{
			"inputs": [],
			"name": "winner",
			"outputs": [
				{
					"internalType": "address",
					"name": "",
					"type": "address"
				}
			],
			"stateMutability": "view",
			"type": "function"
		}
	]
}