{
	"data": {
		"bytecode": {
			"linkReferences": {},
			"object": "608060405234801561001057600080fd5b503360405161001e90610089565b61002891906100d7565b604051809103906000f080158015610044573d6000803e3d6000fd5b506000806101000a81548173ffffffffffffffffffffffffffffffffffffffff021916908373ffffffffffffffffffffffffffffffffffffffff1602179055506100f2565b6105c2806110db83390190565b600073ffffffffffffffffffffffffffffffffffffffff82169050919050565b60006100c182610096565b9050919050565b6100d1816100b6565b82525050565b60006020820190506100ec60008301846100c8565b92915050565b610fda806101016000396000f3fe60806040523480156200001157600080fd5b5060043610620000465760003560e01c806377bdab83146200004b578063933ac084146200006b578063c2985578146200008b575b600080fd5b620000696004803603810190620000639190620003cb565b620000ad565b005b62000089600480360381019062000083919062000438565b62000203565b005b6200009562000320565b604051620000a49190620004d5565b60405180910390f35b80604051620000bc9062000344565b620000c8919062000503565b604051809103906000f08015620000dc5760015b620001c757620000eb6200052d565b806308c379a0141562000150575062000103620005c8565b8062000110575062000152565b7fcf34ef537ac33ee1ac626ca1587a0a7e8e51561e5514f8cb36afa1c5102b3bab81604051620001419190620006fd565b60405180910390a150620001c1565b505b3d806000811462000180576040519150601f19603f3d011682016040523d82523d6000602084013e62000185565b606091505b507f532fd6ea96cfb78bb46e09279a26828b8b493de1a2b8b1ee1face527978a15a581604051620001b791906200077e565b60405180910390a1505b62000200565b7fcf34ef537ac33ee1ac626ca1587a0a7e8e51561e5514f8cb36afa1c5102b3bab604051620001f690620007f2565b60405180910390a1505b50565b60008054906101000a900473ffffffffffffffffffffffffffffffffffffffff1673ffffffffffffffffffffffffffffffffffffffff1663a9bf5633826040518263ffffffff1660e01b81526004016200025e919062000825565b600060405180830381865afa925050508015620002a057506040513d6000823e3d601f19601f820116820180604052508101906200029d91906200091f565b60015b620002e2577fcf34ef537ac33ee1ac626ca1587a0a7e8e51561e5514f8cb36afa1c5102b3bab604051620002d490620009c0565b60405180910390a16200031d565b7fcf34ef537ac33ee1ac626ca1587a0a7e8e51561e5514f8cb36afa1c5102b3bab81604051620003139190620006fd565b60405180910390a1505b50565b60008054906101000a900473ffffffffffffffffffffffffffffffffffffffff1681565b6105c280620009e383390190565b6000604051905090565b600080fd5b600080fd5b600073ffffffffffffffffffffffffffffffffffffffff82169050919050565b6000620003938262000366565b9050919050565b620003a58162000386565b8114620003b157600080fd5b50565b600081359050620003c5816200039a565b92915050565b600060208284031215620003e457620003e36200035c565b5b6000620003f484828501620003b4565b91505092915050565b6000819050919050565b6200041281620003fd565b81146200041e57600080fd5b50565b600081359050620004328162000407565b92915050565b6000602082840312156200045157620004506200035c565b5b6000620004618482850162000421565b91505092915050565b6000819050919050565b6000620004956200048f620004898462000366565b6200046a565b62000366565b9050919050565b6000620004a98262000474565b9050919050565b6000620004bd826200049c565b9050919050565b620004cf81620004b0565b82525050565b6000602082019050620004ec6000830184620004c4565b92915050565b620004fd8162000386565b82525050565b60006020820190506200051a6000830184620004f2565b92915050565b60008160e01c9050919050565b600060033d11156200054f5760046000803e6200054c60005162000520565b90505b90565b6000601f19601f8301169050919050565b7f4e487b7100000000000000000000000000000000000000000000000000000000600052604160045260246000fd5b6200059d8262000552565b810181811067ffffffffffffffff82111715620005bf57620005be62000563565b5b80604052505050565b600060443d1015620005da5762000667565b620005e462000352565b60043d036004823e80513d602482011167ffffffffffffffff821117156200060e57505062000667565b808201805167ffffffffffffffff8111156200062e575050505062000667565b80602083010160043d0385018111156200064d57505050505062000667565b6200065e8260200185018662000592565b82955050505050505b90565b600081519050919050565b600082825260208201905092915050565b60005b83811015620006a657808201518184015260208101905062000689565b83811115620006b6576000848401525b50505050565b6000620006c9826200066a565b620006d5818562000675565b9350620006e781856020860162000686565b620006f28162000552565b840191505092915050565b60006020820190508181036000830152620007198184620006bc565b905092915050565b600081519050919050565b600082825260208201905092915050565b60006200074a8262000721565b6200075681856200072c565b93506200076881856020860162000686565b620007738162000552565b840191505092915050565b600060208201905081810360008301526200079a81846200073d565b905092915050565b7f466f6f2063726561746564000000000000000000000000000000000000000000600082015250565b6000620007da600b8362000675565b9150620007e782620007a2565b602082019050919050565b600060208201905081810360008301526200080d81620007cb565b9050919050565b6200081f81620003fd565b82525050565b60006020820190506200083c600083018462000814565b92915050565b600080fd5b600080fd5b60006200085862000352565b905062000866828262000592565b919050565b600067ffffffffffffffff82111562000889576200088862000563565b5b620008948262000552565b9050602081019050919050565b6000620008b8620008b2846200086b565b6200084c565b905082815260208101848484011115620008d757620008d662000847565b5b620008e484828562000686565b509392505050565b600082601f83011262000904576200090362000842565b5b815162000916848260208601620008a1565b91505092915050565b6000602082840312156200093857620009376200035c565b5b600082015167ffffffffffffffff81111562000959576200095862000361565b5b6200096784828501620008ec565b91505092915050565b7f65787465726e616c2063616c6c206661696c6564000000000000000000000000600082015250565b6000620009a860148362000675565b9150620009b58262000970565b602082019050919050565b60006020820190508181036000830152620009db8162000999565b905091905056fe608060405234801561001057600080fd5b506040516105c23803806105c283398181016040528101906100329190610189565b600073ffffffffffffffffffffffffffffffffffffffff168173ffffffffffffffffffffffffffffffffffffffff1614156100a2576040517f08c379a000000000000000000000000000000000000000000000000000000000815260040161009990610213565b60405180910390fd5b600173ffffffffffffffffffffffffffffffffffffffff168173ffffffffffffffffffffffffffffffffffffffff1614156100e0576100df610233565b5b806000806101000a81548173ffffffffffffffffffffffffffffffffffffffff021916908373ffffffffffffffffffffffffffffffffffffffff16021790555050610262565b600080fd5b600073ffffffffffffffffffffffffffffffffffffffff82169050919050565b60006101568261012b565b9050919050565b6101668161014b565b811461017157600080fd5b50565b6000815190506101838161015d565b92915050565b60006020828403121561019f5761019e610126565b5b60006101ad84828501610174565b91505092915050565b600082825260208201905092915050565b7f696e76616c696420616464726573730000000000000000000000000000000000600082015250565b60006101fd600f836101b6565b9150610208826101c7565b602082019050919050565b6000602082019050818103600083015261022c816101f0565b9050919050565b7f4e487b7100000000000000000000000000000000000000000000000000000000600052600160045260246000fd5b610351806102716000396000f3fe608060405234801561001057600080fd5b50600436106100365760003560e01c80638da5cb5b1461003b578063a9bf563314610059575b600080fd5b610043610089565b6040516100509190610171565b60405180910390f35b610073600480360381019061006e91906101c7565b6100ad565b604051610080919061028d565b60405180910390f35b60008054906101000a900473ffffffffffffffffffffffffffffffffffffffff1681565b606060008214156100f3576040517f08c379a00000000000000000000000000000000000000000000000000000000081526004016100ea906102fb565b60405180910390fd5b6040518060400160405280601281526020017f6d792066756e63207761732063616c6c656400000000000000000000000000008152509050919050565b600073ffffffffffffffffffffffffffffffffffffffff82169050919050565b600061015b82610130565b9050919050565b61016b81610150565b82525050565b60006020820190506101866000830184610162565b92915050565b600080fd5b6000819050919050565b6101a481610191565b81146101af57600080fd5b50565b6000813590506101c18161019b565b92915050565b6000602082840312156101dd576101dc61018c565b5b60006101eb848285016101b2565b91505092915050565b600081519050919050565b600082825260208201905092915050565b60005b8381101561022e578082015181840152602081019050610213565b8381111561023d576000848401525b50505050565b6000601f19601f8301169050919050565b600061025f826101f4565b61026981856101ff565b9350610279818560208601610210565b61028281610243565b840191505092915050565b600060208201905081810360008301526102a78184610254565b905092915050565b7f72657175697265206661696c6564000000000000000000000000000000000000600082015250565b60006102e5600e836101ff565b91506102f0826102af565b602082019050919050565b60006020820190508181036000830152610314816102d8565b905091905056fea2646970667358221220affd941d379928072a9392a705636f89a36964df8eb9e2cf1affa7824b575a0664736f6c634300080b0033a26469706673582212204dbf972503cbce1142cc4e289cdc24a8f0f1eddb19e14cee65a8a07087782f1864736f6c634300080b0033608060405234801561001057600080fd5b506040516105c23803806105c283398181016040528101906100329190610189565b600073ffffffffffffffffffffffffffffffffffffffff168173ffffffffffffffffffffffffffffffffffffffff1614156100a2576040517f08c379a000000000000000000000000000000000000000000000000000000000815260040161009990610213565b60405180910390fd5b600173ffffffffffffffffffffffffffffffffffffffff168173ffffffffffffffffffffffffffffffffffffffff1614156100e0576100df610233565b5b806000806101000a81548173ffffffffffffffffffffffffffffffffffffffff021916908373ffffffffffffffffffffffffffffffffffffffff16021790555050610262565b600080fd5b600073ffffffffffffffffffffffffffffffffffffffff82169050919050565b60006101568261012b565b9050919050565b6101668161014b565b811461017157600080fd5b50565b6000815190506101838161015d565b92915050565b60006020828403121561019f5761019e610126565b5b60006101ad84828501610174565b91505092915050565b600082825260208201905092915050565b7f696e76616c696420616464726573730000000000000000000000000000000000600082015250565b60006101fd600f836101b6565b9150610208826101c7565b602082019050919050565b6000602082019050818103600083015261022c816101f0565b9050919050565b7f4e487b7100000000000000000000000000000000000000000000000000000000600052600160045260246000fd5b610351806102716000396000f3fe608060405234801561001057600080fd5b50600436106100365760003560e01c80638da5cb5b1461003b578063a9bf563314610059575b600080fd5b610043610089565b6040516100509190610171565b60405180910390f35b610073600480360381019061006e91906101c7565b6100ad565b604051610080919061028d565b60405180910390f35b60008054906101000a900473ffffffffffffffffffffffffffffffffffffffff1681565b606060008214156100f3576040517f08c379a00000000000000000000000000000000000000000000000000000000081526004016100ea906102fb565b60405180910390fd5b6040518060400160405280601281526020017f6d792066756e63207761732063616c6c656400000000000000000000000000008152509050919050565b600073ffffffffffffffffffffffffffffffffffffffff82169050919050565b600061015b82610130565b9050919050565b61016b81610150565b82525050565b60006020820190506101866000830184610162565b92915050565b600080fd5b6000819050919050565b6101a481610191565b81146101af57600080fd5b50565b6000813590506101c18161019b565b92915050565b6000602082840312156101dd576101dc61018c565b5b60006101eb848285016101b2565b91505092915050565b600081519050919050565b600082825260208201905092915050565b60005b8381101561022e578082015181840152602081019050610213565b8381111561023d576000848401525b50505050565b6000601f19601f8301169050919050565b600061025f826101f4565b61026981856101ff565b9350610279818560208601610210565b61028281610243565b840191505092915050565b600060208201905081810360008301526102a78184610254565b905092915050565b7f72657175697265206661696c6564000000000000000000000000000000000000600082015250565b60006102e5600e836101ff565b91506102f0826102af565b602082019050919050565b60006020820190508181036000830152610314816102d8565b905091905056fea2646970667358221220affd941d379928072a9392a705636f89a36964df8eb9e2cf1affa7824b575a0664736f6c634300080b0033",
			"opcodes": "PUSH1 0x80 PUSH1 0x40 MSTORE CALLVALUE DUP1 ISZERO PUSH2 0x10 JUMPI PUSH1 0x0 DUP1 REVERT JUMPDEST POP CALLER PUSH1 0x40 MLOAD PUSH2 0x1E SWAP1 PUSH2 0x89 JUMP JUMPDEST PUSH2 0x28 SWAP2 SWAP1 PUSH2 0xD7 JUMP JUMPDEST PUSH1 0x40 MLOAD DUP1 SWAP2 SUB SWAP1 PUSH1 0x0 CREATE DUP1 ISZERO DUP1 ISZERO PUSH2 0x44 JUMPI RETURNDATASIZE PUSH1 0x0 DUP1 RETURNDATACOPY RETURNDATASIZE PUSH1 0x0 REVERT JUMPDEST POP PUSH1 0x0 DUP1 PUSH2 0x100 EXP DUP2 SLOAD DUP2 PUSH20 0xFFFFFFFFFFFFFFFFFFFFFFFFFFFFFFFFFFFFFFFF MUL NOT AND SWAP1 DUP4 PUSH20 0xFFFFFFFFFFFFFFFFFFFFFFFFFFFFFFFFFFFFFFFF AND MUL OR SWAP1 SSTORE POP PUSH2 0xF2 JUMP JUMPDEST PUSH2 0x5C2 DUP1 PUSH2 0x10DB DUP4 CODECOPY ADD SWAP1 JUMP JUMPDEST PUSH1 0x0 PUSH20 0xFFFFFFFFFFFFFFFFFFFFFFFFFFFFFFFFFFFFFFFF DUP3 AND SWAP1 POP SWAP2 SWAP1 POP JUMP JUMPDEST PUSH1 0x0 PUSH2 0xC1 DUP3 PUSH2 0x96 JUMP JUMPDEST SWAP1 POP SWAP2 SWAP1 POP JUMP JUMPDEST PUSH2 0xD1 DUP2 PUSH2 0xB6 JUMP JUMPDEST DUP3 MSTORE POP POP JUMP JUMPDEST PUSH1 0x0 PUSH1 0x20 DUP3 ADD SWAP1 POP PUSH2 0xEC PUSH1 0x0 DUP4 ADD DUP5 PUSH2 0xC8 JUMP JUMPDEST SWAP3 SWAP2 POP POP JUMP JUMPDEST PUSH2 0xFDA DUP1 PUSH2 0x101 PUSH1 0x0 CODECOPY PUSH1 0x0 RETURN INVALID PUSH1 0x80 PUSH1 0x40 MSTORE CALLVALUE DUP1 ISZERO PUSH3 0x11 JUMPI PUSH1 0x0 DUP1 REVERT JUMPDEST POP PUSH1 0x4 CALLDATASIZE LT PUSH3 0x46 JUMPI PUSH1 0x0 CALLDATALOAD PUSH1 0xE0 SHR DUP1 PUSH4 0x77BDAB83 EQ PUSH3 0x4B JUMPI DUP1 PUSH4 0x933AC084 EQ PUSH3 0x6B JUMPI DUP1 PUSH4 0xC2985578 EQ PUSH3 0x8B JUMPI JUMPDEST PUSH1 0x0 DUP1 REVERT JUMPDEST PUSH3 0x69 PUSH1 0x4 DUP1 CALLDATASIZE SUB DUP2 ADD SWAP1 PUSH3 0x63 SWAP2 SWAP1 PUSH3 0x3CB JUMP JUMPDEST PUSH3 0xAD JUMP JUMPDEST STOP JUMPDEST PUSH3 0x89 PUSH1 0x4 DUP1 CALLDATASIZE SUB DUP2 ADD SWAP1 PUSH3 0x83 SWAP2 SWAP1 PUSH3 0x438 JUMP JUMPDEST PUSH3 0x203 JUMP JUMPDEST STOP JUMPDEST PUSH3 0x95 PUSH3 0x320 JUMP JUMPDEST PUSH1 0x40 MLOAD PUSH3 0xA4 SWAP2 SWAP1 PUSH3 0x4D5 JUMP JUMPDEST PUSH1 0x40 MLOAD DUP1 SWAP2 SUB SWAP1 RETURN JUMPDEST DUP1 PUSH1 0x40 MLOAD PUSH3 0xBC SWAP1 PUSH3 0x344 JUMP JUMPDEST PUSH3 0xC8 SWAP2 SWAP1 PUSH3 0x503 JUMP JUMPDEST PUSH1 0x40 MLOAD DUP1 SWAP2 SUB SWAP1 PUSH1 0x0 CREATE DUP1 ISZERO PUSH3 0xDC JUMPI PUSH1 0x1 JUMPDEST PUSH3 0x1C7 JUMPI PUSH3 0xEB PUSH3 0x52D JUMP JUMPDEST DUP1 PUSH4 0x8C379A0 EQ ISZERO PUSH3 0x150 JUMPI POP PUSH3 0x103 PUSH3 0x5C8 JUMP JUMPDEST DUP1 PUSH3 0x110 JUMPI POP PUSH3 0x152 JUMP JUMPDEST PUSH32 0xCF34EF537AC33EE1AC626CA1587A0A7E8E51561E5514F8CB36AFA1C5102B3BAB DUP2 PUSH1 0x40 MLOAD PUSH3 0x141 SWAP2 SWAP1 PUSH3 0x6FD JUMP JUMPDEST PUSH1 0x40 MLOAD DUP1 SWAP2 SUB SWAP1 LOG1 POP PUSH3 0x1C1 JUMP JUMPDEST POP JUMPDEST RETURNDATASIZE DUP1 PUSH1 0x0 DUP2 EQ PUSH3 0x180 JUMPI PUSH1 0x40 MLOAD SWAP2 POP PUSH1 0x1F NOT PUSH1 0x3F RETURNDATASIZE ADD AND DUP3 ADD PUSH1 0x40 MSTORE RETURNDATASIZE DUP3 MSTORE RETURNDATASIZE PUSH1 0x0 PUSH1 0x20 DUP5 ADD RETURNDATACOPY PUSH3 0x185 JUMP JUMPDEST PUSH1 0x60 SWAP2 POP JUMPDEST POP PUSH32 0x532FD6EA96CFB78BB46E09279A26828B8B493DE1A2B8B1EE1FACE527978A15A5 DUP2 PUSH1 0x40 MLOAD PUSH3 0x1B7 SWAP2 SWAP1 PUSH3 0x77E JUMP JUMPDEST PUSH1 0x40 MLOAD DUP1 SWAP2 SUB SWAP1 LOG1 POP JUMPDEST PUSH3 0x200 JUMP JUMPDEST PUSH32 0xCF34EF537AC33EE1AC626CA1587A0A7E8E51561E5514F8CB36AFA1C5102B3BAB PUSH1 0x40 MLOAD PUSH3 0x1F6 SWAP1 PUSH3 0x7F2 JUMP JUMPDEST PUSH1 0x40 MLOAD DUP1 SWAP2 SUB SWAP1 LOG1 POP JUMPDEST POP JUMP JUMPDEST PUSH1 0x0 DUP1 SLOAD SWAP1 PUSH2 0x100 EXP SWAP1 DIV PUSH20 0xFFFFFFFFFFFFFFFFFFFFFFFFFFFFFFFFFFFFFFFF AND PUSH20 0xFFFFFFFFFFFFFFFFFFFFFFFFFFFFFFFFFFFFFFFF AND PUSH4 0xA9BF5633 DUP3 PUSH1 0x40 MLOAD DUP3 PUSH4 0xFFFFFFFF AND PUSH1 0xE0 SHL DUP2 MSTORE PUSH1 0x4 ADD PUSH3 0x25E SWAP2 SWAP1 PUSH3 0x825 JUMP JUMPDEST PUSH1 0x0 PUSH1 0x40 MLOAD DUP1 DUP4 SUB DUP2 DUP7 GAS STATICCALL SWAP3 POP POP POP DUP1 ISZERO PUSH3 0x2A0 JUMPI POP PUSH1 0x40 MLOAD RETURNDATASIZE PUSH1 0x0 DUP3 RETURNDATACOPY RETURNDATASIZE PUSH1 0x1F NOT PUSH1 0x1F DUP3 ADD AND DUP3 ADD DUP1 PUSH1 0x40 MSTORE POP DUP2 ADD SWAP1 PUSH3 0x29D SWAP2 SWAP1 PUSH3 0x91F JUMP JUMPDEST PUSH1 0x1 JUMPDEST PUSH3 0x2E2 JUMPI PUSH32 0xCF34EF537AC33EE1AC626CA1587A0A7E8E51561E5514F8CB36AFA1C5102B3BAB PUSH1 0x40 MLOAD PUSH3 0x2D4 SWAP1 PUSH3 0x9C0 JUMP JUMPDEST PUSH1 0x40 MLOAD DUP1 SWAP2 SUB SWAP1 LOG1 PUSH3 0x31D JUMP JUMPDEST PUSH32 0xCF34EF537AC33EE1AC626CA1587A0A7E8E51561E5514F8CB36AFA1C5102B3BAB DUP2 PUSH1 0x40 MLOAD PUSH3 0x313 SWAP2 SWAP1 PUSH3 0x6FD JUMP JUMPDEST PUSH1 0x40 MLOAD DUP1 SWAP2 SUB SWAP1 LOG1 POP JUMPDEST POP JUMP JUMPDEST PUSH1 0x0 DUP1 SLOAD SWAP1 PUSH2 0x100 EXP SWAP1 DIV PUSH20 0xFFFFFFFFFFFFFFFFFFFFFFFFFFFFFFFFFFFFFFFF AND DUP2 JUMP JUMPDEST PUSH2 0x5C2 DUP1 PUSH3 0x9E3 DUP4 CODECOPY ADD SWAP1 JUMP JUMPDEST PUSH1 0x0 PUSH1 0x40 MLOAD SWAP1 POP SWAP1 JUMP JUMPDEST PUSH1 0x0 DUP1 REVERT JUMPDEST PUSH1 0x0 DUP1 REVERT JUMPDEST PUSH1 0x0 PUSH20 0xFFFFFFFFFFFFFFFFFFFFFFFFFFFFFFFFFFFFFFFF DUP3 AND SWAP1 POP SWAP2 SWAP1 POP JUMP JUMPDEST PUSH1 0x0 PUSH3 0x393 DUP3 PUSH3 0x366 JUMP JUMPDEST SWAP1 POP SWAP2 SWAP1 POP JUMP JUMPDEST PUSH3 0x3A5 DUP2 PUSH3 0x386 JUMP JUMPDEST DUP2 EQ PUSH3 0x3B1 JUMPI PUSH1 0x0 DUP1 REVERT JUMPDEST POP JUMP JUMPDEST PUSH1 0x0 DUP2 CALLDATALOAD SWAP1 POP PUSH3 0x3C5 DUP2 PUSH3 0x39A JUMP JUMPDEST SWAP3 SWAP2 POP POP JUMP JUMPDEST PUSH1 0x0 PUSH1 0x20 DUP3 DUP5 SUB SLT ISZERO PUSH3 0x3E4 JUMPI PUSH3 0x3E3 PUSH3 0x35C JUMP JUMPDEST JUMPDEST PUSH1 0x0 PUSH3 0x3F4 DUP5 DUP3 DUP6 ADD PUSH3 0x3B4 JUMP JUMPDEST SWAP2 POP POP SWAP3 SWAP2 POP POP JUMP JUMPDEST PUSH1 0x0 DUP2 SWAP1 POP SWAP2 SWAP1 POP JUMP JUMPDEST PUSH3 0x412 DUP2 PUSH3 0x3FD JUMP JUMPDEST DUP2 EQ PUSH3 0x41E JUMPI PUSH1 0x0 DUP1 REVERT JUMPDEST POP JUMP JUMPDEST PUSH1 0x0 DUP2 CALLDATALOAD SWAP1 POP PUSH3 0x432 DUP2 PUSH3 0x407 JUMP JUMPDEST SWAP3 SWAP2 POP POP JUMP JUMPDEST PUSH1 0x0 PUSH1 0x20 DUP3 DUP5 SUB SLT ISZERO PUSH3 0x451 JUMPI PUSH3 0x450 PUSH3 0x35C JUMP JUMPDEST JUMPDEST PUSH1 0x0 PUSH3 0x461 DUP5 DUP3 DUP6 ADD PUSH3 0x421 JUMP JUMPDEST SWAP2 POP POP SWAP3 SWAP2 POP POP JUMP JUMPDEST PUSH1 0x0 DUP2 SWAP1 POP SWAP2 SWAP1 POP JUMP JUMPDEST PUSH1 0x0 PUSH3 0x495 PUSH3 0x48F PUSH3 0x489 DUP5 PUSH3 0x366 JUMP JUMPDEST PUSH3 0x46A JUMP JUMPDEST PUSH3 0x366 JUMP JUMPDEST SWAP1 POP SWAP2 SWAP1 POP JUMP JUMPDEST PUSH1 0x0 PUSH3 0x4A9 DUP3 PUSH3 0x474 JUMP JUMPDEST SWAP1 POP SWAP2 SWAP1 POP JUMP JUMPDEST PUSH1 0x0 PUSH3 0x4BD DUP3 PUSH3 0x49C JUMP JUMPDEST SWAP1 POP SWAP2 SWAP1 POP JUMP JUMPDEST PUSH3 0x4CF DUP2 PUSH3 0x4B0 JUMP JUMPDEST DUP3 MSTORE POP POP JUMP JUMPDEST PUSH1 0x0 PUSH1 0x20 DUP3 ADD SWAP1 POP PUSH3 0x4EC PUSH1 0x0 DUP4 ADD DUP5 PUSH3 0x4C4 JUMP JUMPDEST SWAP3 SWAP2 POP POP JUMP JUMPDEST PUSH3 0x4FD DUP2 PUSH3 0x386 JUMP JUMPDEST DUP3 MSTORE POP POP JUMP JUMPDEST PUSH1 0x0 PUSH1 0x20 DUP3 ADD SWAP1 POP PUSH3 0x51A PUSH1 0x0 DUP4 ADD DUP5 PUSH3 0x4F2 JUMP JUMPDEST SWAP3 SWAP2 POP POP JUMP JUMPDEST PUSH1 0x0 DUP2 PUSH1 0xE0 SHR SWAP1 POP SWAP2 SWAP1 POP JUMP JUMPDEST PUSH1 0x0 PUSH1 0x3 RETURNDATASIZE GT ISZERO PUSH3 0x54F JUMPI PUSH1 0x4 PUSH1 0x0 DUP1 RETURNDATACOPY PUSH3 0x54C PUSH1 0x0 MLOAD PUSH3 0x520 JUMP JUMPDEST SWAP1 POP JUMPDEST SWAP1 JUMP JUMPDEST PUSH1 0x0 PUSH1 0x1F NOT PUSH1 0x1F DUP4 ADD AND SWAP1 POP SWAP2 SWAP1 POP JUMP JUMPDEST PUSH32 0x4E487B7100000000000000000000000000000000000000000000000000000000 PUSH1 0x0 MSTORE PUSH1 0x41 PUSH1 0x4 MSTORE PUSH1 0x24 PUSH1 0x0 REVERT JUMPDEST PUSH3 0x59D DUP3 PUSH3 0x552 JUMP JUMPDEST DUP2 ADD DUP2 DUP2 LT PUSH8 0xFFFFFFFFFFFFFFFF DUP3 GT OR ISZERO PUSH3 0x5BF JUMPI PUSH3 0x5BE PUSH3 0x563 JUMP JUMPDEST JUMPDEST DUP1 PUSH1 0x40 MSTORE POP POP POP JUMP JUMPDEST PUSH1 0x0 PUSH1 0x44 RETURNDATASIZE LT ISZERO PUSH3 0x5DA JUMPI PUSH3 0x667 JUMP JUMPDEST PUSH3 0x5E4 PUSH3 0x352 JUMP JUMPDEST PUSH1 0x4 RETURNDATASIZE SUB PUSH1 0x4 DUP3 RETURNDATACOPY DUP1 MLOAD RETURNDATASIZE PUSH1 0x24 DUP3 ADD GT PUSH8 0xFFFFFFFFFFFFFFFF DUP3 GT OR ISZERO PUSH3 0x60E JUMPI POP POP PUSH3 0x667 JUMP JUMPDEST DUP1 DUP3 ADD DUP1 MLOAD PUSH8 0xFFFFFFFFFFFFFFFF DUP2 GT ISZERO PUSH3 0x62E JUMPI POP POP POP POP PUSH3 0x667 JUMP JUMPDEST DUP1 PUSH1 0x20 DUP4 ADD ADD PUSH1 0x4 RETURNDATASIZE SUB DUP6 ADD DUP2 GT ISZERO PUSH3 0x64D JUMPI POP POP POP POP POP PUSH3 0x667 JUMP JUMPDEST PUSH3 0x65E DUP3 PUSH1 0x20 ADD DUP6 ADD DUP7 PUSH3 0x592 JUMP JUMPDEST DUP3 SWAP6 POP POP POP POP POP POP JUMPDEST SWAP1 JUMP JUMPDEST PUSH1 0x0 DUP2 MLOAD SWAP1 POP SWAP2 SWAP1 POP JUMP JUMPDEST PUSH1 0x0 DUP3 DUP3 MSTORE PUSH1 0x20 DUP3 ADD SWAP1 POP SWAP3 SWAP2 POP POP JUMP JUMPDEST PUSH1 0x0 JUMPDEST DUP4 DUP2 LT ISZERO PUSH3 0x6A6 JUMPI DUP1 DUP3 ADD MLOAD DUP2 DUP5 ADD MSTORE PUSH1 0x20 DUP2 ADD SWAP1 POP PUSH3 0x689 JUMP JUMPDEST DUP4 DUP2 GT ISZERO PUSH3 0x6B6 JUMPI PUSH1 0x0 DUP5 DUP5 ADD MSTORE JUMPDEST POP POP POP POP JUMP JUMPDEST PUSH1 0x0 PUSH3 0x6C9 DUP3 PUSH3 0x66A JUMP JUMPDEST PUSH3 0x6D5 DUP2 DUP6 PUSH3 0x675 JUMP JUMPDEST SWAP4 POP PUSH3 0x6E7 DUP2 DUP6 PUSH1 0x20 DUP7 ADD PUSH3 0x686 JUMP JUMPDEST PUSH3 0x6F2 DUP2 PUSH3 0x552 JUMP JUMPDEST DUP5 ADD SWAP2 POP POP SWAP3 SWAP2 POP POP JUMP JUMPDEST PUSH1 0x0 PUSH1 0x20 DUP3 ADD SWAP1 POP DUP2 DUP2 SUB PUSH1 0x0 DUP4 ADD MSTORE PUSH3 0x719 DUP2 DUP5 PUSH3 0x6BC JUMP JUMPDEST SWAP1 POP SWAP3 SWAP2 POP POP JUMP JUMPDEST PUSH1 0x0 DUP2 MLOAD SWAP1 POP SWAP2 SWAP1 POP JUMP JUMPDEST PUSH1 0x0 DUP3 DUP3 MSTORE PUSH1 0x20 DUP3 ADD SWAP1 POP SWAP3 SWAP2 POP POP JUMP JUMPDEST PUSH1 0x0 PUSH3 0x74A DUP3 PUSH3 0x721 JUMP JUMPDEST PUSH3 0x756 DUP2 DUP6 PUSH3 0x72C JUMP JUMPDEST SWAP4 POP PUSH3 0x768 DUP2 DUP6 PUSH1 0x20 DUP7 ADD PUSH3 0x686 JUMP JUMPDEST PUSH3 0x773 DUP2 PUSH3 0x552 JUMP JUMPDEST DUP5 ADD SWAP2 POP POP SWAP3 SWAP2 POP POP JUMP JUMPDEST PUSH1 0x0 PUSH1 0x20 DUP3 ADD SWAP1 POP DUP2 DUP2 SUB PUSH1 0x0 DUP4 ADD MSTORE PUSH3 0x79A DUP2 DUP5 PUSH3 0x73D JUMP JUMPDEST SWAP1 POP SWAP3 SWAP2 POP POP JUMP JUMPDEST PUSH32 0x466F6F2063726561746564000000000000000000000000000000000000000000 PUSH1 0x0 DUP3 ADD MSTORE POP JUMP JUMPDEST PUSH1 0x0 PUSH3 0x7DA PUSH1 0xB DUP4 PUSH3 0x675 JUMP JUMPDEST SWAP2 POP PUSH3 0x7E7 DUP3 PUSH3 0x7A2 JUMP JUMPDEST PUSH1 0x20 DUP3 ADD SWAP1 POP SWAP2 SWAP1 POP JUMP JUMPDEST PUSH1 0x0 PUSH1 0x20 DUP3 ADD SWAP1 POP DUP2 DUP2 SUB PUSH1 0x0 DUP4 ADD MSTORE PUSH3 0x80D DUP2 PUSH3 0x7CB JUMP JUMPDEST SWAP1 POP SWAP2 SWAP1 POP JUMP JUMPDEST PUSH3 0x81F DUP2 PUSH3 0x3FD JUMP JUMPDEST DUP3 MSTORE POP POP JUMP JUMPDEST PUSH1 0x0 PUSH1 0x20 DUP3 ADD SWAP1 POP PUSH3 0x83C PUSH1 0x0 DUP4 ADD DUP5 PUSH3 0x814 JUMP JUMPDEST SWAP3 SWAP2 POP POP JUMP JUMPDEST PUSH1 0x0 DUP1 REVERT JUMPDEST PUSH1 0x0 DUP1 REVERT JUMPDEST PUSH1 0x0 PUSH3 0x858 PUSH3 0x352 JUMP JUMPDEST SWAP1 POP PUSH3 0x866 DUP3 DUP3 PUSH3 0x592 JUMP JUMPDEST SWAP2 SWAP1 POP JUMP JUMPDEST PUSH1 0x0 PUSH8 0xFFFFFFFFFFFFFFFF DUP3 GT ISZERO PUSH3 0x889 JUMPI PUSH3 0x888 PUSH3 0x563 JUMP JUMPDEST JUMPDEST PUSH3 0x894 DUP3 PUSH3 0x552 JUMP JUMPDEST SWAP1 POP PUSH1 0x20 DUP2 ADD SWAP1 POP SWAP2 SWAP1 POP JUMP JUMPDEST PUSH1 0x0 PUSH3 0x8B8 PUSH3 0x8B2 DUP5 PUSH3 0x86B JUMP JUMPDEST PUSH3 0x84C JUMP JUMPDEST SWAP1 POP DUP3 DUP2 MSTORE PUSH1 0x20 DUP2 ADD DUP5 DUP5 DUP5 ADD GT ISZERO PUSH3 0x8D7 JUMPI PUSH3 0x8D6 PUSH3 0x847 JUMP JUMPDEST JUMPDEST PUSH3 0x8E4 DUP5 DUP3 DUP6 PUSH3 0x686 JUMP JUMPDEST POP SWAP4 SWAP3 POP POP POP JUMP JUMPDEST PUSH1 0x0 DUP3 PUSH1 0x1F DUP4 ADD SLT PUSH3 0x904 JUMPI PUSH3 0x903 PUSH3 0x842 JUMP JUMPDEST JUMPDEST DUP2 MLOAD PUSH3 0x916 DUP5 DUP3 PUSH1 0x20 DUP7 ADD PUSH3 0x8A1 JUMP JUMPDEST SWAP2 POP POP SWAP3 SWAP2 POP POP JUMP JUMPDEST PUSH1 0x0 PUSH1 0x20 DUP3 DUP5 SUB SLT ISZERO PUSH3 0x938 JUMPI PUSH3 0x937 PUSH3 0x35C JUMP JUMPDEST JUMPDEST PUSH1 0x0 DUP3 ADD MLOAD PUSH8 0xFFFFFFFFFFFFFFFF DUP2 GT ISZERO PUSH3 0x959 JUMPI PUSH3 0x958 PUSH3 0x361 JUMP JUMPDEST JUMPDEST PUSH3 0x967 DUP5 DUP3 DUP6 ADD PUSH3 0x8EC JUMP JUMPDEST SWAP2 POP POP SWAP3 SWAP2 POP POP JUMP JUMPDEST PUSH32 0x65787465726E616C2063616C6C206661696C6564000000000000000000000000 PUSH1 0x0 DUP3 ADD MSTORE POP JUMP JUMPDEST PUSH1 0x0 PUSH3 0x9A8 PUSH1 0x14 DUP4 PUSH3 0x675 JUMP JUMPDEST SWAP2 POP PUSH3 0x9B5 DUP3 PUSH3 0x970 JUMP JUMPDEST PUSH1 0x20 DUP3 ADD SWAP1 POP SWAP2 SWAP1 POP JUMP JUMPDEST PUSH1 0x0 PUSH1 0x20 DUP3 ADD SWAP1 POP DUP2 DUP2 SUB PUSH1 0x0 DUP4 ADD MSTORE PUSH3 0x9DB DUP2 PUSH3 0x999 JUMP JUMPDEST SWAP1 POP SWAP2 SWAP1 POP JUMP INVALID PUSH1 0x80 PUSH1 0x40 MSTORE CALLVALUE DUP1 ISZERO PUSH2 0x10 JUMPI PUSH1 0x0 DUP1 REVERT JUMPDEST POP PUSH1 0x40 MLOAD PUSH2 0x5C2 CODESIZE SUB DUP1 PUSH2 0x5C2 DUP4 CODECOPY DUP2 DUP2 ADD PUSH1 0x40 MSTORE DUP2 ADD SWAP1 PUSH2 0x32 SWAP2 SWAP1 PUSH2 0x189 JUMP JUMPDEST PUSH1 0x0 PUSH20 0xFFFFFFFFFFFFFFFFFFFFFFFFFFFFFFFFFFFFFFFF AND DUP2 PUSH20 0xFFFFFFFFFFFFFFFFFFFFFFFFFFFFFFFFFFFFFFFF AND EQ ISZERO PUSH2 0xA2 JUMPI PUSH1 0x40 MLOAD PUSH32 0x8C379A000000000000000000000000000000000000000000000000000000000 DUP2 MSTORE PUSH1 0x4 ADD PUSH2 0x99 SWAP1 PUSH2 0x213 JUMP JUMPDEST PUSH1 0x40 MLOAD DUP1 SWAP2 SUB SWAP1 REVERT JUMPDEST PUSH1 0x1 PUSH20 0xFFFFFFFFFFFFFFFFFFFFFFFFFFFFFFFFFFFFFFFF AND DUP2 PUSH20 0xFFFFFFFFFFFFFFFFFFFFFFFFFFFFFFFFFFFFFFFF AND EQ ISZERO PUSH2 0xE0 JUMPI PUSH2 0xDF PUSH2 0x233 JUMP JUMPDEST JUMPDEST DUP1 PUSH1 0x0 DUP1 PUSH2 0x100 EXP DUP2 SLOAD DUP2 PUSH20 0xFFFFFFFFFFFFFFFFFFFFFFFFFFFFFFFFFFFFFFFF MUL NOT AND SWAP1 DUP4 PUSH20 0xFFFFFFFFFFFFFFFFFFFFFFFFFFFFFFFFFFFFFFFF AND MUL OR SWAP1 SSTORE POP POP PUSH2 0x262 JUMP JUMPDEST PUSH1 0x0 DUP1 REVERT JUMPDEST PUSH1 0x0 PUSH20 0xFFFFFFFFFFFFFFFFFFFFFFFFFFFFFFFFFFFFFFFF DUP3 AND SWAP1 POP SWAP2 SWAP1 POP JUMP JUMPDEST PUSH1 0x0 PUSH2 0x156 DUP3 PUSH2 0x12B JUMP JUMPDEST SWAP1 POP SWAP2 SWAP1 POP JUMP JUMPDEST PUSH2 0x166 DUP2 PUSH2 0x14B JUMP JUMPDEST DUP2 EQ PUSH2 0x171 JUMPI PUSH1 0x0 DUP1 REVERT JUMPDEST POP JUMP JUMPDEST PUSH1 0x0 DUP2 MLOAD SWAP1 POP PUSH2 0x183 DUP2 PUSH2 0x15D JUMP JUMPDEST SWAP3 SWAP2 POP POP JUMP JUMPDEST PUSH1 0x0 PUSH1 0x20 DUP3 DUP5 SUB SLT ISZERO PUSH2 0x19F JUMPI PUSH2 0x19E PUSH2 0x126 JUMP JUMPDEST JUMPDEST PUSH1 0x0 PUSH2 0x1AD DUP5 DUP3 DUP6 ADD PUSH2 0x174 JUMP JUMPDEST SWAP2 POP POP SWAP3 SWAP2 POP POP JUMP JUMPDEST PUSH1 0x0 DUP3 DUP3 MSTORE PUSH1 0x20 DUP3 ADD SWAP1 POP SWAP3 SWAP2 POP POP JUMP JUMPDEST PUSH32 0x696E76616C696420616464726573730000000000000000000000000000000000 PUSH1 0x0 DUP3 ADD MSTORE POP JUMP JUMPDEST PUSH1 0x0 PUSH2 0x1FD PUSH1 0xF DUP4 PUSH2 0x1B6 JUMP JUMPDEST SWAP2 POP PUSH2 0x208 DUP3 PUSH2 0x1C7 JUMP JUMPDEST PUSH1 0x20 DUP3 ADD SWAP1 POP SWAP2 SWAP1 POP JUMP JUMPDEST PUSH1 0x0 PUSH1 0x20 DUP3 ADD SWAP1 POP DUP2 DUP2 SUB PUSH1 0x0 DUP4 ADD MSTORE PUSH2 0x22C DUP2 PUSH2 0x1F0 JUMP JUMPDEST SWAP1 POP SWAP2 SWAP1 POP JUMP JUMPDEST PUSH32 0x4E487B7100000000000000000000000000000000000000000000000000000000 PUSH1 0x0 MSTORE PUSH1 0x1 PUSH1 0x4 MSTORE PUSH1 0x24 PUSH1 0x0 REVERT JUMPDEST PUSH2 0x351 DUP1 PUSH2 0x271 PUSH1 0x0 CODECOPY PUSH1 0x0 RETURN INVALID PUSH1 0x80 PUSH1 0x40 MSTORE CALLVALUE DUP1 ISZERO PUSH2 0x10 JUMPI PUSH1 0x0 DUP1 REVERT JUMPDEST POP PUSH1 0x4 CALLDATASIZE LT PUSH2 0x36 JUMPI PUSH1 0x0 CALLDATALOAD PUSH1 0xE0 SHR DUP1 PUSH4 0x8DA5CB5B EQ PUSH2 0x3B JUMPI DUP1 PUSH4 0xA9BF5633 EQ PUSH2 0x59 JUMPI JUMPDEST PUSH1 0x0 DUP1 REVERT JUMPDEST PUSH2 0x43 PUSH2 0x89 JUMP JUMPDEST PUSH1 0x40 MLOAD PUSH2 0x50 SWAP2 SWAP1 PUSH2 0x171 JUMP JUMPDEST PUSH1 0x40 MLOAD DUP1 SWAP2 SUB SWAP1 RETURN JUMPDEST PUSH2 0x73 PUSH1 0x4 DUP1 CALLDATASIZE SUB DUP2 ADD SWAP1 PUSH2 0x6E SWAP2 SWAP1 PUSH2 0x1C7 JUMP JUMPDEST PUSH2 0xAD JUMP JUMPDEST PUSH1 0x40 MLOAD PUSH2 0x80 SWAP2 SWAP1 PUSH2 0x28D JUMP JUMPDEST PUSH1 0x40 MLOAD DUP1 SWAP2 SUB SWAP1 RETURN JUMPDEST PUSH1 0x0 DUP1 SLOAD SWAP1 PUSH2 0x100 EXP SWAP1 DIV PUSH20 0xFFFFFFFFFFFFFFFFFFFFFFFFFFFFFFFFFFFFFFFF AND DUP2 JUMP JUMPDEST PUSH1 0x60 PUSH1 0x0 DUP3 EQ ISZERO PUSH2 0xF3 JUMPI PUSH1 0x40 MLOAD PUSH32 0x8C379A000000000000000000000000000000000000000000000000000000000 DUP2 MSTORE PUSH1 0x4 ADD PUSH2 0xEA SWAP1 PUSH2 0x2FB JUMP JUMPDEST PUSH1 0x40 MLOAD DUP1 SWAP2 SUB SWAP1 REVERT JUMPDEST PUSH1 0x40 MLOAD DUP1 PUSH1 0x40 ADD PUSH1 0x40 MSTORE DUP1 PUSH1 0x12 DUP2 MSTORE PUSH1 0x20 ADD PUSH32 0x6D792066756E63207761732063616C6C65640000000000000000000000000000 DUP2 MSTORE POP SWAP1 POP SWAP2 SWAP1 POP JUMP JUMPDEST PUSH1 0x0 PUSH20 0xFFFFFFFFFFFFFFFFFFFFFFFFFFFFFFFFFFFFFFFF DUP3 AND SWAP1 POP SWAP2 SWAP1 POP JUMP JUMPDEST PUSH1 0x0 PUSH2 0x15B DUP3 PUSH2 0x130 JUMP JUMPDEST SWAP1 POP SWAP2 SWAP1 POP JUMP JUMPDEST PUSH2 0x16B DUP2 PUSH2 0x150 JUMP JUMPDEST DUP3 MSTORE POP POP JUMP JUMPDEST PUSH1 0x0 PUSH1 0x20 DUP3 ADD SWAP1 POP PUSH2 0x186 PUSH1 0x0 DUP4 ADD DUP5 PUSH2 0x162 JUMP JUMPDEST SWAP3 SWAP2 POP POP JUMP JUMPDEST PUSH1 0x0 DUP1 REVERT JUMPDEST PUSH1 0x0 DUP2 SWAP1 POP SWAP2 SWAP1 POP JUMP JUMPDEST PUSH2 0x1A4 DUP2 PUSH2 0x191 JUMP JUMPDEST DUP2 EQ PUSH2 0x1AF JUMPI PUSH1 0x0 DUP1 REVERT JUMPDEST POP JUMP JUMPDEST PUSH1 0x0 DUP2 CALLDATALOAD SWAP1 POP PUSH2 0x1C1 DUP2 PUSH2 0x19B JUMP JUMPDEST SWAP3 SWAP2 POP POP JUMP JUMPDEST PUSH1 0x0 PUSH1 0x20 DUP3 DUP5 SUB SLT ISZERO PUSH2 0x1DD JUMPI PUSH2 0x1DC PUSH2 0x18C JUMP JUMPDEST JUMPDEST PUSH1 0x0 PUSH2 0x1EB DUP5 DUP3 DUP6 ADD PUSH2 0x1B2 JUMP JUMPDEST SWAP2 POP POP SWAP3 SWAP2 POP POP JUMP JUMPDEST PUSH1 0x0 DUP2 MLOAD SWAP1 POP SWAP2 SWAP1 POP JUMP JUMPDEST PUSH1 0x0 DUP3 DUP3 MSTORE PUSH1 0x20 DUP3 ADD SWAP1 POP SWAP3 SWAP2 POP POP JUMP JUMPDEST PUSH1 0x0 JUMPDEST DUP4 DUP2 LT ISZERO PUSH2 0x22E JUMPI DUP1 DUP3 ADD MLOAD DUP2 DUP5 ADD MSTORE PUSH1 0x20 DUP2 ADD SWAP1 POP PUSH2 0x213 JUMP JUMPDEST DUP4 DUP2 GT ISZERO PUSH2 0x23D JUMPI PUSH1 0x0 DUP5 DUP5 ADD MSTORE JUMPDEST POP POP POP POP JUMP JUMPDEST PUSH1 0x0 PUSH1 0x1F NOT PUSH1 0x1F DUP4 ADD AND SWAP1 POP SWAP2 SWAP1 POP JUMP JUMPDEST PUSH1 0x0 PUSH2 0x25F DUP3 PUSH2 0x1F4 JUMP JUMPDEST PUSH2 0x269 DUP2 DUP6 PUSH2 0x1FF JUMP JUMPDEST SWAP4 POP PUSH2 0x279 DUP2 DUP6 PUSH1 0x20 DUP7 ADD PUSH2 0x210 JUMP JUMPDEST PUSH2 0x282 DUP2 PUSH2 0x243 JUMP JUMPDEST DUP5 ADD SWAP2 POP POP SWAP3 SWAP2 POP POP JUMP JUMPDEST PUSH1 0x0 PUSH1 0x20 DUP3 ADD SWAP1 POP DUP2 DUP2 SUB PUSH1 0x0 DUP4 ADD MSTORE PUSH2 0x2A7 DUP2 DUP5 PUSH2 0x254 JUMP JUMPDEST SWAP1 POP SWAP3 SWAP2 POP POP JUMP JUMPDEST PUSH32 0x72657175697265206661696C6564000000000000000000000000000000000000 PUSH1 0x0 DUP3 ADD MSTORE POP JUMP JUMPDEST PUSH1 0x0 PUSH2 0x2E5 PUSH1 0xE DUP4 PUSH2 0x1FF JUMP JUMPDEST SWAP2 POP PUSH2 0x2F0 DUP3 PUSH2 0x2AF JUMP JUMPDEST PUSH1 0x20 DUP3 ADD SWAP1 POP SWAP2 SWAP1 POP JUMP JUMPDEST PUSH1 0x0 PUSH1 0x20 DUP3 ADD SWAP1 POP DUP2 DUP2 SUB PUSH1 0x0 DUP4 ADD MSTORE PUSH2 0x314 DUP2 PUSH2 0x2D8 JUMP JUMPDEST SWAP1 POP SWAP2 SWAP1 POP JUMP INVALID LOG2 PUSH5 0x6970667358 0x22 SLT KECCAK256 0xAF REVERT SWAP5 SAR CALLDATACOPY SWAP10 0x28 SMOD 0x2A SWAP4 SWAP3 0xA7 SDIV PUSH4 0x6F89A369 PUSH5 0xDF8EB9E2CF BYTE SELFDESTRUCT 0xA7 DUP3 0x4B JUMPI GAS MOD PUSH5 0x736F6C6343 STOP ADDMOD SIGNEXTEND STOP CALLER LOG2 PUSH5 0x6970667358 0x22 SLT KECCAK256 0x4D 0xBF SWAP8 0x25 SUB 0xCB 0xCE GT TIMESTAMP 0xCC 0x4E 0x28 SWAP13 0xDC 0x24 0xA8 CREATE CALL 0xED 0xDB NOT 0xE1 0x4C 0xEE PUSH6 0xA8A07087782F XOR PUSH5 0x736F6C6343 STOP ADDMOD SIGNEXTEND STOP CALLER PUSH1 0x80 PUSH1 0x40 MSTORE CALLVALUE DUP1 ISZERO PUSH2 0x10 JUMPI PUSH1 0x0 DUP1 REVERT JUMPDEST POP PUSH1 0x40 MLOAD PUSH2 0x5C2 CODESIZE SUB DUP1 PUSH2 0x5C2 DUP4 CODECOPY DUP2 DUP2 ADD PUSH1 0x40 MSTORE DUP2 ADD SWAP1 PUSH2 0x32 SWAP2 SWAP1 PUSH2 0x189 JUMP JUMPDEST PUSH1 0x0 PUSH20 0xFFFFFFFFFFFFFFFFFFFFFFFFFFFFFFFFFFFFFFFF AND DUP2 PUSH20 0xFFFFFFFFFFFFFFFFFFFFFFFFFFFFFFFFFFFFFFFF AND EQ ISZERO PUSH2 0xA2 JUMPI PUSH1 0x40 MLOAD PUSH32 0x8C379A000000000000000000000000000000000000000000000000000000000 DUP2 MSTORE PUSH1 0x4 ADD PUSH2 0x99 SWAP1 PUSH2 0x213 JUMP JUMPDEST PUSH1 0x40 MLOAD DUP1 SWAP2 SUB SWAP1 REVERT JUMPDEST PUSH1 0x1 PUSH20 0xFFFFFFFFFFFFFFFFFFFFFFFFFFFFFFFFFFFFFFFF AND DUP2 PUSH20 0xFFFFFFFFFFFFFFFFFFFFFFFFFFFFFFFFFFFFFFFF AND EQ ISZERO PUSH2 0xE0 JUMPI PUSH2 0xDF PUSH2 0x233 JUMP JUMPDEST JUMPDEST DUP1 PUSH1 0x0 DUP1 PUSH2 0x100 EXP DUP2 SLOAD DUP2 PUSH20 0xFFFFFFFFFFFFFFFFFFFFFFFFFFFFFFFFFFFFFFFF MUL NOT AND SWAP1 DUP4 PUSH20 0xFFFFFFFFFFFFFFFFFFFFFFFFFFFFFFFFFFFFFFFF AND MUL OR SWAP1 SSTORE POP POP PUSH2 0x262 JUMP JUMPDEST PUSH1 0x0 DUP1 REVERT JUMPDEST PUSH1 0x0 PUSH20 0xFFFFFFFFFFFFFFFFFFFFFFFFFFFFFFFFFFFFFFFF DUP3 AND SWAP1 POP SWAP2 SWAP1 POP JUMP JUMPDEST PUSH1 0x0 PUSH2 0x156 DUP3 PUSH2 0x12B JUMP JUMPDEST SWAP1 POP SWAP2 SWAP1 POP JUMP JUMPDEST PUSH2 0x166 DUP2 PUSH2 0x14B JUMP JUMPDEST DUP2 EQ PUSH2 0x171 JUMPI PUSH1 0x0 DUP1 REVERT JUMPDEST POP JUMP JUMPDEST PUSH1 0x0 DUP2 MLOAD SWAP1 POP PUSH2 0x183 DUP2 PUSH2 0x15D JUMP JUMPDEST SWAP3 SWAP2 POP POP JUMP JUMPDEST PUSH1 0x0 PUSH1 0x20 DUP3 DUP5 SUB SLT ISZERO PUSH2 0x19F JUMPI PUSH2 0x19E PUSH2 0x126 JUMP JUMPDEST JUMPDEST PUSH1 0x0 PUSH2 0x1AD DUP5 DUP3 DUP6 ADD PUSH2 0x174 JUMP JUMPDEST SWAP2 POP POP SWAP3 SWAP2 POP POP JUMP JUMPDEST PUSH1 0x0 DUP3 DUP3 MSTORE PUSH1 0x20 DUP3 ADD SWAP1 POP SWAP3 SWAP2 POP POP JUMP JUMPDEST PUSH32 0x696E76616C696420616464726573730000000000000000000000000000000000 PUSH1 0x0 DUP3 ADD MSTORE POP JUMP JUMPDEST PUSH1 0x0 PUSH2 0x1FD PUSH1 0xF DUP4 PUSH2 0x1B6 JUMP JUMPDEST SWAP2 POP PUSH2 0x208 DUP3 PUSH2 0x1C7 JUMP JUMPDEST PUSH1 0x20 DUP3 ADD SWAP1 POP SWAP2 SWAP1 POP JUMP JUMPDEST PUSH1 0x0 PUSH1 0x20 DUP3 ADD SWAP1 POP DUP2 DUP2 SUB PUSH1 0x0 DUP4 ADD MSTORE PUSH2 0x22C DUP2 PUSH2 0x1F0 JUMP JUMPDEST SWAP1 POP SWAP2 SWAP1 POP JUMP JUMPDEST PUSH32 0x4E487B7100000000000000000000000000000000000000000000000000000000 PUSH1 0x0 MSTORE PUSH1 0x1 PUSH1 0x4 MSTORE PUSH1 0x24 PUSH1 0x0 REVERT JUMPDEST PUSH2 0x351 DUP1 PUSH2 0x271 PUSH1 0x0 CODECOPY PUSH1 0x0 RETURN INVALID PUSH1 0x80 PUSH1 0x40 MSTORE CALLVALUE DUP1 ISZERO PUSH2 0x10 JUMPI PUSH1 0x0 DUP1 REVERT JUMPDEST POP PUSH1 0x4 CALLDATASIZE LT PUSH2 0x36 JUMPI PUSH1 0x0 CALLDATALOAD PUSH1 0xE0 SHR DUP1 PUSH4 0x8DA5CB5B EQ PUSH2 0x3B JUMPI DUP1 PUSH4 0xA9BF5633 EQ PUSH2 0x59 JUMPI JUMPDEST PUSH1 0x0 DUP1 REVERT JUMPDEST PUSH2 0x43 PUSH2 0x89 JUMP JUMPDEST PUSH1 0x40 MLOAD PUSH2 0x50 SWAP2 SWAP1 PUSH2 0x171 JUMP JUMPDEST PUSH1 0x40 MLOAD DUP1 SWAP2 SUB SWAP1 RETURN JUMPDEST PUSH2 0x73 PUSH1 0x4 DUP1 CALLDATASIZE SUB DUP2 ADD SWAP1 PUSH2 0x6E SWAP2 SWAP1 PUSH2 0x1C7 JUMP JUMPDEST PUSH2 0xAD JUMP JUMPDEST PUSH1 0x40 MLOAD PUSH2 0x80 SWAP2 SWAP1 PUSH2 0x28D JUMP JUMPDEST PUSH1 0x40 MLOAD DUP1 SWAP2 SUB SWAP1 RETURN JUMPDEST PUSH1 0x0 DUP1 SLOAD SWAP1 PUSH2 0x100 EXP SWAP1 DIV PUSH20 0xFFFFFFFFFFFFFFFFFFFFFFFFFFFFFFFFFFFFFFFF AND DUP2 JUMP JUMPDEST PUSH1 0x60 PUSH1 0x0 DUP3 EQ ISZERO PUSH2 0xF3 JUMPI PUSH1 0x40 MLOAD PUSH32 0x8C379A000000000000000000000000000000000000000000000000000000000 DUP2 MSTORE PUSH1 0x4 ADD PUSH2 0xEA SWAP1 PUSH2 0x2FB JUMP JUMPDEST PUSH1 0x40 MLOAD DUP1 SWAP2 SUB SWAP1 REVERT JUMPDEST PUSH1 0x40 MLOAD DUP1 PUSH1 0x40 ADD PUSH1 0x40 MSTORE DUP1 PUSH1 0x12 DUP2 MSTORE PUSH1 0x20 ADD PUSH32 0x6D792066756E63207761732063616C6C65640000000000000000000000000000 DUP2 MSTORE POP SWAP1 POP SWAP2 SWAP1 POP JUMP JUMPDEST PUSH1 0x0 PUSH20 0xFFFFFFFFFFFFFFFFFFFFFFFFFFFFFFFFFFFFFFFF DUP3 AND SWAP1 POP SWAP2 SWAP1 POP JUMP JUMPDEST PUSH1 0x0 PUSH2 0x15B DUP3 PUSH2 0x130 JUMP JUMPDEST SWAP1 POP SWAP2 SWAP1 POP JUMP JUMPDEST PUSH2 0x16B DUP2 PUSH2 0x150 JUMP JUMPDEST DUP3 MSTORE POP POP JUMP JUMPDEST PUSH1 0x0 PUSH1 0x20 DUP3 ADD SWAP1 POP PUSH2 0x186 PUSH1 0x0 DUP4 ADD DUP5 PUSH2 0x162 JUMP JUMPDEST SWAP3 SWAP2 POP POP JUMP JUMPDEST PUSH1 0x0 DUP1 REVERT JUMPDEST PUSH1 0x0 DUP2 SWAP1 POP SWAP2 SWAP1 POP JUMP JUMPDEST PUSH2 0x1A4 DUP2 PUSH2 0x191 JUMP JUMPDEST DUP2 EQ PUSH2 0x1AF JUMPI PUSH1 0x0 DUP1 REVERT JUMPDEST POP JUMP JUMPDEST PUSH1 0x0 DUP2 CALLDATALOAD SWAP1 POP PUSH2 0x1C1 DUP2 PUSH2 0x19B JUMP JUMPDEST SWAP3 SWAP2 POP POP JUMP JUMPDEST PUSH1 0x0 PUSH1 0x20 DUP3 DUP5 SUB SLT ISZERO PUSH2 0x1DD JUMPI PUSH2 0x1DC PUSH2 0x18C JUMP JUMPDEST JUMPDEST PUSH1 0x0 PUSH2 0x1EB DUP5 DUP3 DUP6 ADD PUSH2 0x1B2 JUMP JUMPDEST SWAP2 POP POP SWAP3 SWAP2 POP POP JUMP JUMPDEST PUSH1 0x0 DUP2 MLOAD SWAP1 POP SWAP2 SWAP1 POP JUMP JUMPDEST PUSH1 0x0 DUP3 DUP3 MSTORE PUSH1 0x20 DUP3 ADD SWAP1 POP SWAP3 SWAP2 POP POP JUMP JUMPDEST PUSH1 0x0 JUMPDEST DUP4 DUP2 LT ISZERO PUSH2 0x22E JUMPI DUP1 DUP3 ADD MLOAD DUP2 DUP5 ADD MSTORE PUSH1 0x20 DUP2 ADD SWAP1 POP PUSH2 0x213 JUMP JUMPDEST DUP4 DUP2 GT ISZERO PUSH2 0x23D JUMPI PUSH1 0x0 DUP5 DUP5 ADD MSTORE JUMPDEST POP POP POP POP JUMP JUMPDEST PUSH1 0x0 PUSH1 0x1F NOT PUSH1 0x1F DUP4 ADD AND SWAP1 POP SWAP2 SWAP1 POP JUMP JUMPDEST PUSH1 0x0 PUSH2 0x25F DUP3 PUSH2 0x1F4 JUMP JUMPDEST PUSH2 0x269 DUP2 DUP6 PUSH2 0x1FF JUMP JUMPDEST SWAP4 POP PUSH2 0x279 DUP2 DUP6 PUSH1 0x20 DUP7 ADD PUSH2 0x210 JUMP JUMPDEST PUSH2 0x282 DUP2 PUSH2 0x243 JUMP JUMPDEST DUP5 ADD SWAP2 POP POP SWAP3 SWAP2 POP POP JUMP JUMPDEST PUSH1 0x0 PUSH1 0x20 DUP3 ADD SWAP1 POP DUP2 DUP2 SUB PUSH1 0x0 DUP4 ADD MSTORE PUSH2 0x2A7 DUP2 DUP5 PUSH2 0x254 JUMP JUMPDEST SWAP1 POP SWAP3 SWAP2 POP POP JUMP JUMPDEST PUSH32 0x72657175697265206661696C6564000000000000000000000000000000000000 PUSH1 0x0 DUP3 ADD MSTORE POP JUMP JUMPDEST PUSH1 0x0 PUSH2 0x2E5 PUSH1 0xE DUP4 PUSH2 0x1FF JUMP JUMPDEST SWAP2 POP PUSH2 0x2F0 DUP3 PUSH2 0x2AF JUMP JUMPDEST PUSH1 0x20 DUP3 ADD SWAP1 POP SWAP2 SWAP1 POP JUMP JUMPDEST PUSH1 0x0 PUSH1 0x20 DUP3 ADD SWAP1 POP DUP2 DUP2 SUB PUSH1 0x0 DUP4 ADD MSTORE PUSH2 0x314 DUP2 PUSH2 0x2D8 JUMP JUMPDEST SWAP1 POP SWAP2 SWAP1 POP JUMP INVALID LOG2 PUSH5 0x6970667358 0x22 SLT KECCAK256 0xAF REVERT SWAP5 SAR CALLDATACOPY SWAP10 0x28 SMOD 0x2A SWAP4 SWAP3 0xA7 SDIV PUSH4 0x6F89A369 PUSH5 0xDF8EB9E2CF BYTE SELFDESTRUCT 0xA7 DUP3 0x4B JUMPI GAS MOD PUSH5 0x736F6C6343 STOP ADDMOD SIGNEXTEND STOP CALLER "
		},
		"gasEstimates": {
			"creation": {
				"codeDepositCost": "811600",
				"executionCost": "infinite",
				"totalCost": "infinite"
			},
			"external": {
				"foo()": "infinite",
				"tryCatchExternalCall(uint256)": "infinite",
				"tryCatchNewContract(address)": "infinite"
			}
		},
		"methodIdentifiers": {
			"foo()": "c2985578",
			"tryCatchExternalCall(uint256)": "933ac084",
			"tryCatchNewContract(address)": "77bdab83"
		}
	},
	"abi": [
		{
			"inputs": [],
			"stateMutability": "nonpayable",
			"type": "constructor"
		},
		{
			"anonymous": false,
			"inputs": [
				{
					"indexed": false,
					"internalType": "string",
					"name": "message",
					"type": "string"
				}
			],
			"name": "Log",
			"type": "event"
		},
		{
			"anonymous": false,
			"inputs": [
				{
					"indexed": false,
					"internalType": "bytes",
					"name": "data",
					"type": "bytes"
				}
			],
			"name": "LogBytes",
			"type": "event"
		},
		{
			"inputs": [],
			"name": "foo",
			"outputs": [
				{
					"internalType": "contract Foo",
					"name": "",
					"type": "address"
				}
			],
			"stateMutability": "view",
			"type": "function"
		},
		{
			"inputs": [
				{
					"internalType": "uint256",
					"name": "_i",
					"type": "uint256"
				}
			],
			"name": "tryCatchExternalCall",
			"outputs": [],
			"stateMutability": "nonpayable",
			"type": "function"
		},
		{
			"inputs": [
				{
					"internalType": "address",
					"name": "_owner",
					"type": "address"
				}
			],
			"name": "tryCatchNewContract",
			"outputs": [],
			"stateMutability": "nonpayable",
			"type": "function"
		}
	]
}